:100000000C9438000C9455000C9455000C94550039
:100010000C9457000C9455000C9455000C9455000A
:100020000C9455000C948D040C9455000C945500C0
:100030000C9455000C9455000C9455000C945500EC
:100040000C94BD000C9455000C9455000C943B0688
:100050000C94870C0C9455000C9455000C9455008E
:100060000C9455000C9455000C9455000C945500BC
:1000700011241FBECFEFD4E0DEBFCDBF12E0A0E061
:10008000B1E0EAE6F5E302C005900D92A436B107AF
:10009000D9F723E0A4E6B2E001C01D92AB3EB2075F
:1000A000E1F70E94F2190C94851A0C9400001F923B
:1000B0001FB61F9211242F933F938F939F9389B361
:1000C0008370909199029817D1F020919402309109
:1000D00095029330E1F4215031098230F1F0209102
:1000E0009402309195022D3291E03907D8F02CE23C
:1000F00031E03093950220939402809399029F916E
:100100008F913F912F911F901FBE1F901895923095
:1001100031F7833021F72F5F3F4F309395022093C3
:100120009402DDCF2431310540F724E130E0E1CF06
:1001300089B7816089BF8BE083BF8AEF81BF089553
:1001400089B7816089BF8BE087BD82E382BD089556
:10015000EDE7F0E0808184608083089585E20E946D
:10016000120AEDE7F0E080818B7F80830895809113
:100170007D0082FB882780F908951F920F920FB6A9
:100180000F9211242F933F934F935F936F937F931D
:100190008F939F93AF93BF93EF93FF9380917502DB
:1001A0008F3F29F0809175028F5F80937502809157
:1001B000880290918902019649F08091880290917D
:1001C000890201969093890280938802809181022E
:1001D00090918202019649F0809181029091820271
:1001E0000196909382028093810280916702813010
:1001F00059F480B38295817090916D02992309F42E
:100200003FC080936D021AC080917002909171027C
:10021000892BA1F0809170029091710201979093C7
:100220007102809370028091700290917102892B0B
:1002300029F49498809167028130D9F20E94B70026
:1002400081110DC080916402883C59F510926402BE
:100250000E946C0B809164028F5F80936402FF9117
:10026000EF91BF91AF919F918F917F916F915F912E
:100270004F913F912F910F900FBE0F901F901895A7
:10028000882309F4BECF8091720290917302019687
:10029000909373028093720288EF0E94BD0681E002
:1002A000B0CF809164028436A9F60E94590BD2CF58
:1002B00090919602892F881F8827881F292F2295C1
:1002C0002695269523708227292F22952F70822725
:1002D000292F2695269582278170990F892B809347
:1002E000960208950F931F93CF93DF93F894809114
:1002F00067028150823040F18091C102843021F147
:1003000080917402863010F0109274028091740211
:1003100080FF10C0949880917402882381F08091AE
:1003200074028F5F809374027894DF91CF911F9154
:100330000F910895949A88EF0E94BD06ECCF8091AA
:1003400074028F5F8093740280916602883010F08F
:100350001092660280916602E091C102E15080FF36
:10036000D6C1EF3060F4F0E0E957F54E0C947F1AF7
:1003700080E00E94A90D809191020E94D90680918F
:100380006602843008F0BEC285E20E94BF090E9466
:100390006C0B0E944A0B809166028F5F809366020D
:1003A000C3CF80917703811104C080916C038823AF
:1003B00061F0909191029F3F41F080918D02991FD1
:1003C0009927991F892B0E94A90D80916C0388237E
:1003D000B1F280917403803140F4E0917403F0E055
:1003E000E758FC4F80818F3F51F610927403809143
:1003F00073038F5F8093730380917303803158F48C
:10040000E0917303F0E0EE0FFF1FE45BFC4F80818F
:100410009181019611F410927303E0917303F0E05F
:10042000EE0FFF1FE45BFC4F8081918190936F037F
:1004300080936E0380916E0390916F03019621F477
:100440008FEF809379039BCF0E94E30E8093860207
:100450000E943A0A94CF80917703882309F48FCFC2
:10046000809191028F3F29F0881F8827881F0E9462
:10047000A90D809174038F5F80937403809174033E
:10048000803148F4E0917403F0E0E758FC4F80813C
:100490008F3F09F074CF1092740371CF8091CA031B
:1004A000882309F46CCF809191028F3F59F090918D
:1004B0008D02881F8827881F892B09F472C081E06C
:1004C0000E94A90D809165028F3F81F020918D02DD
:1004D000982F991F9927991F922B41F0982F9F735E
:1004E00019F090918602890F0E94D90680917403B9
:1004F000803148F4E0917403F0E0E758FC4F8081CC
:100500008F3F09F03CCF109274038091C9038F5F35
:100510008093C9038091C903803240F4E091C903FC
:10052000F0E0E755FC4F80818F3F11F41092C90332
:1005300069EA73E089E893E00E943616882331F077
:1005400090918B0280918A029817C1F090E080E030
:10055000FC01E757FC4F2081FC01E755FC4F20834D
:10056000019680329105A1F71092C903109286027C
:10057000109285020E942B0B0E94800B80918A02B0
:1005800080938B028091850280938602E091C9035B
:10059000F0E0E755FC4F608180918B020E9485124C
:1005A000EECE80E00E94A90D80919102982F9F735A
:1005B00019F090918602890F0E94D90683CF80910D
:1005C000CA03882309F4DBCE809191028F3F59F052
:1005D00090918D02881F8827881F892B09F482C07B
:1005E00081E00E94A90D80917403803148F4E0916C
:1005F0007403F0E0E758FC4F80818F3F09F0BFCED5
:1006000010927403809173038F5F809373038091C2
:100610007303803160F4E0917303F0E0EE0FFF1F8D
:10062000E45BFC4F80819181019609F04BC01092F0
:1006300073038091C9038F5F8093C9038091C903BD
:10064000803240F4E091C903F0E0E755FC4F80812F
:100650008F3F71F51092C90369EA73E089E893E06E
:100660000E943616882331F090918B0280918A0285
:100670009817B1F090E080E0FC01E757FC4F208133
:10068000FC01E755FC4F2083019680329105A1F7CC
:1006900010928602109285020E942B0B0E94800B02
:1006A00080918A0280938B028091850280938602DA
:1006B000E091C903F0E0E755FC4F608180918B0227
:1006C0000E94420FE0917303F0E0EE0FFF1FE45B26
:1006D000FC4F8081918190936F0380936E030E9401
:1006E000E30E4DCE80E00E94A90D80919102982FDB
:1006F0009F7351F0C0918602C80F80916E03909154
:100700006F030E94B20E8C0F0E94D9066CCFEF309F
:1007100008F035CEF0E0EA56F54E0C947F1A809141
:1007200091028093650280919002809391020E94D1
:100730005801809390028091910240E060E08F73B5
:100740000E94930D80919102D2C080917703811114
:1007500005C080916C03882309F411CE8091770342
:10076000882371F080917403803140F4E091740328
:10077000F0E0E758FC4F80818F3F11F41092740332
:100780006091910260936502E091740381E08E0FA5
:1007900080937403F0E0E758FC4F808180939102CE
:1007A0008F3F09F4ECCD90918C02992319F0807C55
:1007B0008093910240919102842F8F7346FB4427CE
:1007C00040F9661F6627661F882361F020918E021C
:1007D00090918D02422B692B90918602890F0E9485
:1007E000930DCDCD90918E0280918D02492B682B77
:1007F00080E0F5CF80917703882309F4C0CD0E9473
:100800003A0A809174030E94480A80919102809371
:100810006502E0917403F0E0E758FC4F808180931B
:1008200091028F3F09F4ABCD0E94BD0B80919102E4
:1008300086FB442740F960916502661F6627661FA4
:100840008F73CDCF8091CA03882331F00E943A0A7A
:10085000809174030E94480A8091CA03882309F496
:100860008ECD6091910260936502E091740381E006
:100870008E0F80937403F0E0E758FC4F80818093E3
:1008800091028F3F09F47BCD90918C02992319F04E
:10089000807C80939102C09191028C2F8F73C6FB54
:1008A000CC27C0F9661F6627661F882319F10091BF
:1008B0008E0210918D02162BD0918602D80F809156
:1008C0006E0390916F030E94B20E402F4C2B612F4C
:1008D0008D0F0E94930DC091910280918602C80FE6
:1008E00080916E0390916F030E94B20E8C0F0E9454
:1008F000C30645CD40918E0280918D024C2B682B12
:1009000080E01ECF80916602883008F042CD85E2FB
:100910000E94120A0E94590B3CCD1F920F920FB6F3
:100920000F9211242F933F934F935F936F937F9375
:100930008F939F93AF93BF93EF93FF938091970211
:100940009091980290938900809388000E94720190
:10095000FF91EF91BF91AF919F918F917F916F9197
:100960005F914F913F912F910F900FBE0F901F906D
:100970001895159BFECF83B990E080E00895CF9342
:10098000DF93EC018991811103C0DF91CF9108952C
:100990000E94B904F7CFEF92FF920F931F93CF936A
:1009A000DF939C0104E010E0D0E1C7E28AE0E82E8A
:1009B000F12CED2FFC2F8D2F9C2FB7010E94491A8F
:1009C000D62FC72FC901BF010E94491A2E173F0712
:1009D00028F18C0180E3860F0E94B90498010AE097
:1009E00010E0C9016D2F7C2F0E94491A7C0180E321
:1009F000860F0E94B9049701ED2FFC2F8D2F9C2F9D
:100A0000B8010E94491AD62FC72F3A9750F7DF91A5
:100A1000CF911F910F91FF90EF9008959C0101508D
:100A2000110939F6DCCF8F708A3018F4805D0C9490
:100A3000B904895CFCCFCF93DF93EC01892F992710
:100A400082958F70009711F00E9413058D2F9927C2
:100A5000009711F00E941305CE0124E0969587952A
:100A60002A95E1F7009711F00E9413058C2FDF9172
:100A7000CF910C94130582B1082E000C990B892F8D
:100A8000881F8827881F90E00895179BFECF83B1A9
:100A900090E008959C01E199FECF3FBB2EBBE09A08
:100AA0008DB308959C01E199FECF3FBB2EBB6DBB7A
:100AB000F894E29AE19A78940895CF93DF9300D066
:100AC00000D0CDB7DEB789839A8389819A81449714
:100AD00020F484E190E09A83898389819A818D3220
:100AE000914020F08CE291E09A83898389819A81F8
:100AF0009093930280939202909395028093940234
:100B00006A8185E090E00E9452056091920286E041
:100B100090E00E94520580919202909193020E946F
:100B20006C0C89819A819C0150E040E060E070E7A4
:100B300088E399E30E945D1ACA01B90120E330E01D
:100B400040E050E00E945D1ACA01887F892B21F5A0
:100B500093E056954795379527959A95D1F7309319
:100B600098022093970282E080938A0080919702F6
:100B70009091980291958195910990939802809314
:100B8000970290938900809388000F900F900F90A8
:100B90000F90DF91CF91089584E056954795379552
:100BA00027958A95D1F7309398022093970286E093
:100BB000DBCFCF93EBE6F0E08081816080838081A2
:100BC000826080838BB788608BBF85E090E00E9455
:100BD0004A05C82F86E090E00E944A059C2F0E949B
:100BE0005D0510926602EDE7F0E08081846080830D
:100BF000CF91089581B1886181B983E380B91CBE2A
:100C00000E943B05892BA9F40F9A8AB188698AB999
:100C10008FE189B910BC80EC8ABB8CE38BBB8BEB7A
:100C200087BB18BA8FEF84BB81BB86B981E58DB9CC
:100C300008950E9445058AE00E941F06E1CF20EA40
:100C40003FE0E22FF32F3197F1F78A95D1F708951E
:100C5000CF93C82FC15010F4CF9108958AEF0E940E
:100C60001F068AEF0E941F068AEF0E941F068AEF66
:100C70000E941F06EFCF1F921FB61F9211248F9361
:100C80009F93EF93FF938CB18A3F21F510926902F5
:100C900010926802E0916B0291E09E0F90936B02BC
:100CA000F0E0E556FD4F808380916B028F71809359
:100CB0006B0290916B0280916C0298131EC0809120
:100CC0006C028F5F80936C0280916C028F718093B5
:100CD0006C0213C0883FF1F680916702813021F0E9
:100CE000949A85E0809370028091680290916902E5
:100CF00001969093690280936802FF91EF919F9112
:100D00008F911F901FBE1F90189590E00E944A057A
:100D1000803108F08FE0089583E00E94850680937B
:100D2000BB0284E00E94850680939A020895909108
:100D30006502981306C080E00E94A90D8FEF809392
:100D400065020895CF93C82F962F611104C060E00B
:100D5000CF910C94970661E0809165028F3F09F472
:100D600060E087EE8C0F41E0953608F440E00E9489
:100D7000930DC0936502CF9108955D9BFECF8CB912
:100D800090E080E00895CF93C82F80919A02806907
:100D90000E94BD068C2F8F7351F40E94BD06809176
:100DA0000201C6FF80910001CF910C94BD06875EC1
:100DB000F4CFCF93C82F80919A0280680E94BD061D
:100DC0008C2F8F7339F40E94BD0680910101CF9161
:100DD0000C94BD06875EF7CF30916C0220916B02B8
:100DE00081E090E0321302C090E080E0089590919D
:100DF0006C0280916B029817D1F3F894E0916C0229
:100E000081E08E0F80936C02F0E0E556FD4F80810B
:100E100090916C029F7190936C02789490E0089589
:100E20000E94EC06892B11F480E008950E94F706D9
:100E30009C0187FFF9CF982F92959F709F3049F0C2
:100E40002F7033274091BB024217130669F7909326
:100E50006A02089580919A02806B0E94BD068BE71A
:100E60000E94BD0680E00C94BD06CF93DF930E94E4
:100E7000AE000E943A0A8091BB020E94480A0E947A
:100E8000430884E60E941F060E94430884E60E94ED
:100E90001F060E944308D091C8028FEF809365021D
:100EA0000E9443088091C102882321F0DF91CF91F5
:100EB0000C942A076091C8026D1771F06093BB0211
:100EC00083E090E00E9452050E943A0A8091BB02A2
:100ED0000E94480AD091C8020E94EC06892B01F3B7
:100EE0000E94F7069C01C82F87FF0EC0982F92958D
:100EF0009F709F3039F02F7033274091BB0242170B
:100F00001306A1F490936A0290916A02983089F0D6
:100F1000993031F687FF03C00E94F706C82F0E9460
:100F2000F706682F8C2F0E94A206BACF10926A0291
:100F3000B7CF87FF03C00E94F706C82F0E94F706AD
:100F4000682F8C2F0E949706ABCF8091670282306A
:100F500029F08CEF0E94BD060C942A070895CF93C8
:100F60000E94B700C82F809167028130D1F0C11173
:100F70000E94AE009498979A85E00E941F06809187
:100F80009702909198020A97909389008093880025
:100F90001092740210926602CC2319F0CF910C9437
:100FA000A800CF91089580916702813009F0979849
:100FB000089580B3881F8827881F90916F02911130
:100FC00006C0882321F091E090936F0208958093EA
:100FD0006F0280E0089580B3881F8827881F909152
:100FE0006E02992331F0811104C010926E0281E0EB
:100FF000089580936E0280E0089581B3806F81BB75
:1010000082B38F7082BB089581B38F7081BB82B32E
:101010008F7082BB0895F894C09800000000000013
:101020000000C09AFC0103961FB8779BFECF2FB13A
:101030002193E817F907C1F778940895DE98089589
:10104000DE9A089589B3869586958F70282F30E0B3
:10105000982F96959270869586958695982BA901DE
:10106000440F551F4470942B43E0220F331F4A95C1
:10107000E1F72870922B8FE0891B089589B386953C
:1010800086958F700895AF92BF92DF92EF92FF9294
:101090000F931F93CF93DF9300D000D000D0CDB734
:1010A000DEB7209194023091950280919202909146
:1010B00093022817390731F080919402909195029C
:1010C0000E945D051092BE021092C5021092BF02EE
:1010D0001092C6021092C0021092C702809175024F
:1010E000843108F48DC0109275020E941E08CE0152
:1010F00004960E940B088091C20289838091C302EA
:101100008A838091C4028B8390E041E050E0292FD4
:1011100026952695269530E0F901EE53FD4FF08097
:10112000892F8770BA0101C0660F8A95EAF7890195
:1011300007531D4FD8018C91A4E0B0E0AC0FBD1F48
:101140002A0F3B1FD9013C91262F20952F21AF2D2F
:10115000A62309F465C0832B8623822B80839F5F9F
:101160009831A9F60E9422089091C802981749F078
:101170009091BD02981305C08093C80291E09093AE
:1011800076028093BD020E942008FE01349609EC8D
:1011900012E0BE016F5F7F4F42EC52E02EEB32E077
:1011A00085ECA82E82E0B82E7E01B7E0EB0EF11C94
:1011B0008191D8018D938D01DB01DD90BD01DA01B4
:1011C0008D91AD019D2D90959823D9019D939D0101
:1011D00080958D21D5018D935D01EE16FF0641F7B7
:1011E0000E943E089091C102981731F09091BC0284
:1011F000981302C08093C1028093BC020E944A0BE4
:1012000026960FB6F894DEBF0FBECDBFDF91CF910B
:101210001F910F91FF90EF90DF90BF90AF900895D6
:10122000862383239ACF282F883190F4E82FE695E0
:10123000E695E695F0E0EE53FD4F9081892F90E022
:10124000277002C0959587952A95E2F781700895D9
:1012500080E00895282F883190F4E82FE695E695F0
:10126000E695F0E0E254FD4F9081892F90E02770E1
:1012700002C0959587952A95E2F78170089580E0E0
:101280000895282F883190F4E82FE695E695E695A5
:10129000F0E0EB53FD4F9081892F90E0277002C062
:1012A000959587952A95E2F78170089580E00895D5
:1012B0009091C2028091C302982B8091C402982B16
:1012C00081E009F080E008950F931F93CF930CE025
:1012D00011E0C0E0F80181918F010E941309811192
:1012E00004C0CF5FCD30B1F7CFEF8C2FCF911F91DE
:1012F0000F9108950F931F93CF9304E011E0C0E086
:10130000F80181918F010E941309CF5F811103C001
:10131000C830B1F7C0E08C2FCF911F910F91089585
:101320000F931F93CF9304E011E0C0E0F801819187
:101330008F010E942A09CF5F811103C0C830B1F725
:10134000C0E08C2FCF911F910F910895809176026C
:10135000109276020895E82FE695E695E695F0E07E
:10136000E458FD4F282F277081E090E001C0880FDE
:101370002A95EAF7809590818923808308958832A1
:1013800088F4E82FE695E695E695F0E0E458FD4F01
:10139000877021E030E001C0220F8A95EAF7808152
:1013A000822B80830895883288F4E82FE695E695AD
:1013B000E695F0E0E958FD4F877021E030E001C08C
:1013C000220F8A95EAF78081822B808308958832E4
:1013D00098F4E82FE695E695E695F0E0E958FD4F9C
:1013E000282F277081E090E001C0880F2A95EAF746
:1013F00080959081892380830895883288F4E82F2E
:10140000E695E695E695F0E0E958FD4F877021E016
:1014100030E001C0220F8A95EAF780818223089587
:1014200080E00895883210F40C94AB090895E82FF9
:10143000E695E695E695F0E0E458FD4F208130E032
:101440008770A90102C0559547958A95E2F7CA01B0
:10145000817099270895ECE7F2E0148213821282DA
:1014600011821082E7E7F2E0148213821282118265
:1014700010820895CF93DF93C6E4D1E089910E9452
:10148000120A81E0C635D807C9F7DF91CF910895D8
:10149000803138F4E82FF0E0EA5BFE4F80810C9455
:1014A000BF090895803138F4E82FF0E0EA5BFE4F81
:1014B00080810C94D3090895803140F4E82FF0E046
:1014C000EA5BFE4F80810E94170A089580E008952C
:1014D000803138F4E82FF0E0EA5BFE4F80810C9415
:1014E000FD0980E00895883138F4E82FF0E0E25DEE
:1014F000FE4F80810C94BF090895883138F4E82F9D
:10150000F0E0E25DFE4F80810C94D30908958831AC
:1015100038F4E82FF0E0E25DFE4F80810C94120A6F
:101520000895CF93DF93CEE2D1E089910E94120A11
:1015300081E0C634D807C9F7DF91CF9108959FEFB6
:10154000980F983038F4E82FF0E0E85EFE4F808185
:101550000C94BF0908950F931F93CF93DF93D82F57
:1015600009E111E0C1E0F80181918F01DC130AC0AB
:101570000E94BF09CF5FC930B1F7DF91CF911F91B2
:101580000F9108950E94120AF5CF9FEF980F98309F
:1015900038F4E82FF0E0E85EFE4F80810C94120AE8
:1015A00008959FEF980F983038F4E82FF0E0E85E48
:1015B000FE4F80810C94D30908959FEF980F9830C7
:1015C00038F4E82FF0E0E85EFE4F80810C94FD09CE
:1015D00080E008959FEF980F983040F4E82FF0E0F6
:1015E000E85EFE4F80810E94170A089580E008950A
:1015F000CF93DF93C9E1D1E089910E94120A81E083
:10160000C132D807C9F7DF91CF9108958D3038F4F2
:10161000E82FF0E0EF5DFE4F80810C94BF09089544
:101620008D3038F4E82FF0E0EF5DFE4F80810C94B0
:10163000120A08958D3038F4E82FF0E0EF5DFE4F88
:1016400080810C94D3090895E82FF0E0EF5DFE4F00
:1016500080810C94FD09CF93DF93C1E2D1E08991A1
:101660000E94120A81E0CE32D807C9F7DF91CF91EC
:1016700008950E942B0B84E00E94AB0983E00E9436
:10168000AB0988E00E94AB0981E00E94AB0982E0CF
:101690000C94AB09F894DF98ECE7F2E081918FB9F4
:1016A000779BFECF82E0E138F807C1F7DF9A7894A4
:1016B0000895CF93DF93ECE7F2E0A7E7B2E08191E2
:1016C0009D91EF012197892B888382E0E138F8070B
:1016D000B1F7DF91CF910895CF93DF93ECE7F2E07C
:1016E000A7E7B2E091918D91EF0121978095892331
:1016F000888382E0E138F807A9F7DF91CF91089558
:10170000CF93DF93ECE7F2E0A7E7B2E091918D9100
:10171000292F282329F0EF01219780958923888399
:10172000ED012197188282E0E138F80779F7DF911F
:10173000CF910895CF93C82F84E00E94AB09C230A7
:1017400039F480917702886080937702CF91089571
:1017500083E00E94AB0980917702877F80937702B4
:1017600080917C028860C13029F0CF3F79F7809169
:101770007C02806180937C02E9CFEF92FF920F930D
:101780001F93CF93DF93C82F86E1C7FF11C00E943C
:10179000730A85E1C6FF0FC00E94730ACF7331F050
:1017A0008FEFC73178F0C43248F4CC5080E00AC0E3
:1017B0000E94870AEECF0E94870AF0CFC03388F4D8
:1017C000C85181E00E949A0BC11113C00E942B0BDB
:1017D00084E1DF91CF911F910F91FF90EF900C94D6
:1017E000730ACC3318F4C45282E0ECCFC05383E0C8
:1017F000E9CF84E10E94870A81E2E82E81E0F82E99
:101800000BE010E0D0E0C017D10721F0F701808194
:101810000E94120A0F5F1F4FFFEFEF1AFF0A0831F5
:10182000110589F7CA5EDE4F8881DF91CF911F9144
:101830000F91FF90EF900C94BF090F931F93CF93DC
:10184000DF93EC018C01060F171FC017D10729F495
:10185000DF91CF911F910F91089589910E94B90452
:10186000F4CF0E9443088091C1028E30D1F30E94D0
:101870002B0A0C944A0BCF93DF93DC01AB0180E081
:1018800090E0292F30E02417350718F0DF91CF9131
:1018900008952A0F3B1FE901E8818E27E82FF0E029
:1018A000EA5AFE4F80819F5FECCFCF93DF93CCEC61
:1018B000D2E090E89883198291E09A838B8364E068
:1018C00070E0CE010E943B0C8C8365E070E0CE019D
:1018D000DF91CF910C941D0CCF93DF93CCECD2E031
:1018E00022E42883198222E02A83982789279827CF
:1018F0009C838B8365E070E0CE010E943B0C8D835E
:1019000066E070E0CE01DF91CF910C941D0C1F9228
:101910000F920FB60F921124EF92FF920F931F9325
:101920002F933F934F935F936F937F938F939F93E7
:10193000AF93BF93CF93DF93EF93FF93C3B18091A6
:101940000301882309F443C08091810290918202AF
:10195000893E934030F00E943A0A0E944A0B10924E
:10196000840280918402803408F048C091E0980F8E
:1019700090938402E82FF0E0E45FFC4FC083109264
:1019800082021092810280918402833000F1C09122
:101990000D03D0910E03DC27CD27DC279E012C5FA1
:1019A0003F4F8217130698F02396BE018CE093E018
:1019B0000E943B0CC45FDC4F9881891721F190E0B5
:1019C0000E941B051092840280E00E94550CFF913A
:1019D000EF91DF91CF91BF91AF919F918F917F91C7
:1019E0006F915F914F913F912F911F910F91FF90B8
:1019F000EF900F900FBE0F901F9018950E94550CFE
:101A000010928402BCCF80910C0390910E0381311F
:101A100021F140F4813009F482C0803109F459C0C9
:101A200080E07EC0803481F08134D1F79230C1F7FC
:101A300080910F0390E0982F882720911003820F48
:101A4000911D0E945D0506C08091920290919302C3
:101A50000E946C0C10928402BACF923009F7C091A8
:101A60000F03E8E0CE9FC0011124C0911003C80FFE
:101A7000D92FD11D24E0CC0FDD1F2A95E1F789E194
:101A80008093CC021092CD0280E18093CE023FEC95
:101A9000E32E32E0F32E10E000E0CE01800F911F24
:101AA0000E949B0EF70181937F010F5F1F4F003152
:101AB000110599F763E170E08CEC92E00E943B0C19
:101AC0008093DF0264E170E08CEC92E00E941D0CD8
:101AD000C1CF923109F0A4CFC0910F03F8E0CF9F9E
:101AE000C0011124C0911003C80FD92FD11D84E06B
:101AF000CC0FDD1F8A95E1F791E1E92E93E0F92EF5
:101B000010E000E0BE01600F711FF70181917F01BD
:101B10000E945F0E0F5F1F4F0031110599F781E0A2
:101B20000E94550C97CF3A98611160E490E0411102
:101B300001C090E8882349F0803408F08FE3862BB9
:101B4000892B85BB3A9A399A0895862F892B85BBB4
:101B50000895882319F0AE9A3A9808953998FCCFE1
:101B60009F92AF92BF92CF92DF92EF92FF920F932C
:101B70001F93CF93DF930E94AE000E943A0A0E9407
:101B800043080E94A609E12C00E0D0E0C0E02CE070
:101B9000922E0E9443088091C102843069F0DF9147
:101BA000CF911F910F91FF90EF90DF90CF90BF905A
:101BB000AF909F900C942A0780919A020E945C0A31
:101BC000811106C00E943A0A80919A020E94480A36
:101BD0000E94A609882341F06091C80260939A028E
:101BE00084E090E00E9452058C2F0E949A0BC99DC0
:101BF000102D1124195EB02EB294BB0CBB0C80ECDE
:101C0000B82296E5C92E92E0D92EF12CF601A190CA
:101C10006F018A2D0E942A09882371F0402F6E2DB2
:101C2000812F0E94930D812F8B290E94C3068F2D37
:101C30000E94060BEE24E3948A2D0E94410988231A
:101C400039F0812F8B290E94D9068F2D0E94100B0D
:101C5000F3941F5FFDE0FF12D9CF8FE00E942A09A5
:101C60008823F9F0C230D1050CF4219685E10E9459
:101C70002A09882331F081E001111DC00E94BF09AB
:101C800001E083B38F7309F484CF0E94580988233D
:101C900009F47FCF80E00E94A90D0E942B0BE12C5C
:101CA00078CF8EE00E942A09882301F3CF3FDC071A
:101CB000E9F22197DBCF0E94120A00E0E2CFF8940C
:101CC00025E0C09800000000000000002FB9779BBD
:101CD000FECF00000000000000001FB8779BFECF81
:101CE0009FB1C09A000000000000000090FDE9CF05
:101CF000C0980000000096E09FB9779BFECF0000DF
:101D00000000C09A0000000000000000C098000021
:101D1000000092E09FB9779BFECF7FB9779BFECF03
:101D20006FB9779BFECF8FB9779BFECF0000000085
:101D3000C09A78940895F894C0980000000023E0B9
:101D40002FB9779BFECF9FB9779BFECF8FB9779B3B
:101D5000FECF000000001FB8779BFECF8FB1C09A66
:101D600078940895892F8F7194FD806E08958091E5
:101D70008602811106C083E00E94120A84E00C945E
:101D8000120A87FF06C083E00E94120A84E00C94C6
:101D9000BF0983E00E94BF09F1CF81E08093710306
:101DA00084E20E94BF090C943A0A1092710384E203
:101DB0000E94120A0E942B0A0E94800B1092770345
:101DC00080E00C94A90D80916E0390916F03682FB1
:101DD000677023E0969587952A95E1F78F700E94AA
:101DE000851280916E0390916F03AC01252F2078AE
:101DF00020938C02252F207420938E02252F207291
:101E000020938D02109274030C94B20E81E08093A3
:101E1000700381E20E94BF0910928E0210928D021F
:101E200010928C0210926C031092770380914C03F5
:101E300090914D0390936F0380936E03019689F008
:101E40001092730310927403109291020E94E30E99
:101E5000809386028091660280FDFCCF81E08093B2
:101E60006C030C943A0A109270031092770310924C
:101E70006C0380E00E94A90D0E942B0A0E94800B37
:101E80000C94A609EF92FF920F931F93CF93DF93C9
:101E900098E0899FE0011124C60FD11D45E0CC0FC9
:101EA000DD1F4A95E1F7D85FF12CE12CCE010E94AD
:101EB0009B0E90E0982F88278701000F111F045B6D
:101EC0001C4FF80191838083CE0101960E949B0EE6
:101ED000F80120813181282B31832083FFEFEF1A15
:101EE000FF0A229680E1E816F10401F7DF91CF9115
:101EF0001F910F91FF90EF900895EF92FF920F9333
:101F00001F93CF93DF9328E0829FE0011124C60F37
:101F1000D11D35E0CC0FDD1F3A95E1F7D85F10E019
:101F200000E0C801880F991FFC01E45BFC4F7F01B2
:101F300080819181BE01892F0E945F0EF70180810F
:101F40009181BE016F5F7F4F0E945F0E0F5F1F4F39
:101F500022960031110529F7DF91CF911F910F9142
:101F6000FF90EF900895EF92FF920F931F93CF93FE
:101F7000DF930E94A8008091C802877080936D0350
:101F800010927203109271031092700310926C03FE
:101F900010927703109273038FEF9FEF90936F036C
:101FA00080936E03109267020E943A0A0E94800B8F
:101FB0000FEF1FEFEE24EA94FE2C0E94430880915D
:101FC000C102813099F00E94AE0010927703109206
:101FD0006C0380E00E94A90D0E942B0ADF91CF9133
:101FE0001F910F91FF90EF900C944A0B8091710319
:101FF00090917003892B39F50E94A609882359F026
:102000008091C802877080936D03609172030E9473
:10201000420F0E943A0A80916D030E94480A0E9472
:102020007A09C82F882351F00E942B0B6FEF6C0F99
:102030006093720380916D030E94420F809172033E
:102040008F5F0E949F0A81E00E942A09882339F04D
:1020500080917003882309F44AC00E94330F809155
:10206000700390917103892BB9F0809173030E94E2
:10207000680A811102C00E94800B809173030E9444
:10208000520A80916E0390916F030196C1F50E94F0
:10209000390B80E00E94BF0988E00E942A0988234A
:1020A00009F462C080917003811163C080E00E94D6
:1020B000A90D80917103882309F482C188E00E94F0
:1020C0002A09882309F43FC1809173038F3060F49B
:1020D000E0917303F0E0EE0FFF1FE45BFC4F8081A3
:1020E0009181019609F029C1109273033FC180913B
:1020F000710381110E94D50E0E94060FB0CF80E0BF
:102100000E94120A80916E0390916F0323E09695CE
:1021100087952A95E1F78F700E94480A80916E0397
:1021200090916F0397FF14C088E00E94BF098091CF
:102130006E0390916F0396FF0FC081E00E94BF096C
:1021400080916E0390916F0395FF0AC082E0A2CF49
:1021500088E00E94120AEBCF81E00E94120AF0CFC1
:1021600082E00E94120A98CF83E00E942A0981111E
:1021700099CF87E10E942A09882301F18091710398
:102180008823B1F0809173038F3048F4E09173039A
:10219000F0E0EE0FFF1FE25BFC4F11830083F09233
:1021A0006F03E0926E030E94D50E80E00E94120A37
:1021B0006091720380916D030E947D0F8091710385
:1021C000882309F45EC180916E0390916F0301969C
:1021D00009F49AC084E10E942A098823A1F0E091C1
:1021E0007303F0E0EE0FFF1FE45BFC4F80819181F1
:1021F00090589183808390936F0380936E03892F0F
:10220000807880938C0285E10E942A098823A9F0B6
:10221000E0917303F0E0EE0FFF1FE45BFC4F808161
:10222000918120E492279183808390936F03809320
:102230006E03892F807480938E0286E10E942A09A2
:102240008823A9F0E0917303F0E0EE0FFF1FE45B39
:10225000FC4F8081918120E292279183808390932B
:102260006F0380936E03892F807280938D028FE0BD
:102270000E941309882309F4ABC00E946409C82F87
:10228000880FDD0B8FE00E942A09811105C08EE0C6
:102290000E942A09882351F00E94800B0E942B0B78
:1022A00083E00E94120A84E00E94120A8FE00E94DA
:1022B0001309882309F49FC083E00E94BF09CF3F20
:1022C000DC07C1F00E94800B20916E0330916F03F8
:1022D000307EDC2FCC27C22BD32BD0936F03C0933F
:1022E0006E03E0917303F0E0EE0FFF1FE45BFC4F21
:1022F000D183C08380916E0390916F030E94B20ED0
:10230000809386020E941A0B8FE00E9413098111AC
:10231000B8C08EE00E9413098111B3C00E949009D9
:10232000C82F882309F49EC00E94F80A0E943A0A26
:10233000CC2309F4B7C0C150BEC0809173038F5F36
:102340008093730313C080917303811135C0809112
:1023500073038F3058F4E0917303F0E0EE0FFF1F2A
:10236000E45BFC4F80819181019601F5E09173035C
:10237000F0E0EE0FFF1FE45BFC4F808191819093B2
:102380006F0380936E0310927703019609F4F1CEE8
:102390000E94E30E8093860210927403809166027D
:1023A00080FDFCCF81E080937703E3CE80917303BF
:1023B0008F5F80937303CBCF809173038150C0CF25
:1023C00088E00E942A09882389F20E94CD0E8CCED3
:1023D0008EE00E941309811150CF8FE00E944109C5
:1023E0008823D1F183E00E94120A84E00E94120A3D
:1023F0000E94800B89CF8EE00E941309882309F484
:1024000083CF84E00E94BF09CF3FDC07D9F00E9450
:10241000800B2C97DC2FCC27CC27DF7180916E03AB
:1024200090916F03907EC82BD92BD0936F03C093EC
:102430006E03E0917303F0E0EE0FFF1FE45BFC4FCF
:10244000D183C08380916E0390916F030E94B20E7E
:1024500080938602845F56CF8EE00E9441098111ED
:10246000C1CF52CF0E94A60981115ECF0E94B70E44
:1024700080916E0390916F038770992701960E9457
:10248000AB0A80917003882309F497CD0E94B70EA0
:1024900080916E0390916F038770992701960E9437
:1024A000AB0A8BCD80916E0390916F038F3F98079D
:1024B00011F0C82FC7701092770380E00E94A90D19
:1024C0008091C80298E0899F900111242C2B3093B1
:1024D0006F0320936E03E0917303F0E0EE0FFF1F94
:1024E000E45BFC4F318320836C2F0E948512109295
:1024F000740310928D0210928E0210928C02109230
:10250000860281E080937703B1CF0F931F93CF931F
:10251000DF93D82FC62F0E944A0B28E0D29FC0011C
:102520001124C80FD92FD11D84E0CC0FDD1F8A954F
:10253000E1F710E000E0CE01800F911F0E949B0E9A
:10254000F801E758FC4F80830F5F1F4F00311105E2
:1025500091F71092870280E00E94E709DF91CF9106
:102560001F910F910C944A0B0F931F93CF93DF93FE
:10257000D82FC62F0E944A0B28E0D29FC0011124F9
:10258000C80FD92FD11D84E0CC0FDD1F8A95E1F74C
:1025900010E000E0F801E758FC4F8081BE01600FB9
:1025A000711F0E945F0E0F5F1F4F0031110591F7E1
:1025B000DF91CF911F910F910C944A0B10927403ED
:1025C00081E08093750381E20E94BF0980E00E9450
:1025D000A90D80916702811104C08091660280FD7F
:1025E000FCCF81E0809377038093CA038AEF0C9439
:1025F000BD06109277030E94910A0E943A0A0E9437
:10260000800B8091C8020E94480A1092750381E2F3
:102610000E94120A80E00E94A90D1092CA038CEF5A
:102620000C94BD0681E08093710384E20E94BF098F
:102630000E943A0A80E00E94480A80E00C94A90DAA
:102640001092710384E20E94120A1092870280E0C5
:102650000E94120A0E94800B0E94910A0E943A0A6C
:102660008091C8020E94480A80E00C94A90DBF9294
:10267000CF92DF92EF92FF920F931F93CF93DF934E
:10268000E090C102109276031092710310927503CC
:102690001092770310927403109291028091670256
:1026A000811136C00E94A8000E9443088091C80290
:1026B00080937803609176030E9485120E942B0A12
:1026C0008091C8020E94480AFF24F394DD24DA9422
:1026D00080E4C82E0E9443088091C1028E15E9F063
:1026E0000E94AE001092770380E00E94A90D0E9424
:1026F000D3070E94A5070E942B0ADF91CF911F915B
:102700000F91FF90EF90DF90CF90BF900C944A0B09
:102710000E94AE000E94FD07C7CF90917803809180
:10272000C8029817C1F08091750381110E94F912B7
:102730008091710381110E9420138091C8028093BF
:102740007803609176030E9485120E943A0A809174
:10275000C8020E94480A8091750390917103892BE9
:10276000B9F4809176038F5F0E949F0A0E947A09D4
:10277000C82F882369F00E942B0B8C2F0E949F0A80
:102780006FEF6C0F60937603809178030E9485123F
:1027900080E00E942A09882389F1809175038823AB
:1027A00069F182E20E94BF0910E000E00E94580136
:1027B000F801E758FC4F80830F5F1F4F0031110570
:1027C000A9F7F09287029091CA038091670299233A
:1027D00011F1823051F580916802909169021816CA
:1027E0001906DCF480916802909169020397909336
:1027F0006902809368020E9472016CCF80E00E949F
:102800004109882301F3809175038823E1F282E274
:102810000E94120AD8CF823041F40E941007B82ECD
:10282000882319F090E00E941B058091750388238E
:1028300009F444C180916702882369F0809167029E
:10284000823009F03BC18CEFB81651F086E08B0D59
:10285000823040F43CC181E00E942A09882371F350
:102860000E94F9128091750390917103892B09F4EC
:10287000F7C00091740310E007581C4FF801C081A5
:10288000CF7385E10E942A09882341F0CF3331F0CC
:10289000F80180818C258083F092870286E10E9476
:1028A0002A09882309F435C1CF3309F018C1D0E0D3
:1028B00084E10E942A098111C0E08FE00E942A0968
:1028C000882339F0CF3329F0CC2319F0D2300CF41F
:1028D000C45F8EE00E942A09882339F0CF3329F0A3
:1028E000CC2319F0DF3F09F0CC5084E00E942A0984
:1028F000882329F0CCE0DC9FC02D1124C95E89E03B
:102900000E942A09882329F0CCE0DC9FC02D1124E5
:10291000C85E85E00E942A09882329F0CCE0DC9F6C
:10292000C02D1124C75E8AE00E942A09882329F05D
:10293000CCE0DC9FC02D1124C65ED33009F45AC010
:1029400086E00E942A09882329F0CCE0DC9FC02D74
:102950001124C55E87E00E942A09882329F0CCE073
:10296000DC9FC02D1124C45E8BE00E942A098823BD
:1029700029F0CCE0DC9FC02D1124C35E81E10E94D0
:102980002A09882329F0CCE0DC9FC02D1124C25EE7
:102990008CE00E942A09882329F0CCE0DC9FC02D1E
:1029A0001124C15E82E10E942A09882329F0CCE02B
:1029B000DC9FC02D1124C05E8DE00E942A0988236F
:1029C00029F0CCE0DC9FC02D1124CF5D80E10E9476
:1029D0002A09882329F0CCE0DC9FC02D1124CE5D8C
:1029E00083E10E942A09882329F0CCE0DC9FC02DD6
:1029F0001124CD5DF80180818F3F11F4CF3321F494
:102A0000F8018081807CC82BF80180818C17D1F07F
:102A100080917103882331F080E00E94A90D81E04C
:102A20000E941F06F801C083F09287028091710313
:102A3000882341F0C6FB442740F960E08C2F8F7358
:102A40000E94930DCF3F09F46BC08C2F0E94BD0BE9
:102A500080918702882309F45FC080E00E94D30937
:102A600088E00E942A09882309F466C080917103D6
:102A7000811189C088E00E942A09882309F461C075
:102A80008091750381115DC00E941213109274032E
:102A9000E0917403F0E0E758FC4F8081809391024D
:102AA0008F3F09F44EC086FB442740F960E0D6C052
:102AB00080916702823009F0D5CEC8CE809167023E
:102AC0008111F6CF81E00E942A09882389F3809141
:102AD000710381110E9420130E94DE12C3CEF801FF
:102AE000808180588083F0928702CC2309F4DFCE66
:102AF000DFEFC73108F4DCCEC43208F4D8CED1E021
:102B0000C03308F4D5CED3E0CC3308F0D1CED2E038
:102B1000CFCECF3351F7CBCE80E00E94120AA0CFA8
:102B20000E94390B80E00E94E70983E00E94E709D8
:102B300080E00E94BF0994CF83E00E942A0981119E
:102B400095CF87E10E942A09882309F4C3CD80919B
:102B50007103882361F0809174038F3030F4E09129
:102B60007403F0E0E658FC4FD0820E94201360917D
:102B700076038091C8020E94B4121092870280E00E
:102B80000E94E709A7CDC0919102CC1FCC27CC1F92
:102B90008C2F0E94A90D81E00E941F0688E00E94F0
:102BA0002A09882389F1809174038F3040F4E091E1
:102BB0007403F0E0E758FC4F80818F3FF9F41092E6
:102BC00074030E943A0A809174030E94480AE091BB
:102BD0007403F0E0E758FC4F8081809391028F3FAF
:102BE00069F581E00E94120A82E00E94120A80E0E8
:102BF0000E94BF0980E00E94E709A3CF809174037F
:102C00008F5F80937403DDCF80917403811112C0B4
:102C1000809174038F30A8F6E0917403F0E0E758D8
:102C2000FC4F80818F3F69F2809174038F5F8093A6
:102C30007403EECF809174038150E3CF80E00E9453
:102C4000120A80918702882319F080E00E94D3093C
:102C50008091910286FB442740F96C2F8F730E946C
:102C6000930D809191020E94BD0B6BCF9C01AB0133
:102C700090E080E0F901E80FF91F7081DA01A80FF8
:102C8000B91F6C91761309C060816F3F21F00196E6
:102C90008032910579F781E0089580E00895AF9240
:102CA000BF92CF92DF92EF92FF920F931F93CF9339
:102CB000DF93C090C10280916702811167C00E94BA
:102CC000A80080916702813009F063C00E94040867
:102CD0000E942B0A0E94800B1092A9031092890374
:102CE0008FEF8093AA0380938A0381E00E949F0A5A
:102CF0001092CA03109273031092740310926F0320
:102D000010926E031092C9031092850210928602EF
:102D10000E943A0A9091C1028091C8029B3019F03A
:102D2000977F9730C9F580938B0280938A028091B8
:102D3000C8020E94480AC0E000E61AEEDD24DA94D8
:102D40000E9443088091C1028C1541F11092CA0380
:102D50000E94D3070E94A507109285021092860256
:102D600010928D0210928C0210928E020E942B0AF9
:102D70000E94800BDF91CF911F910F91FF90EF90F8
:102D8000DF90CF90BF90AF900C944A0B0E94AE00A2
:102D900098CF0E94FD079CCF8770C5CF87E10E9426
:102DA0002A09882319F1809188029091890286303E
:102DB0009D40C0F480918802909189028E349140A8
:102DC00088F06091880270918902C8010E94491AB6
:102DD00070938902609388028091880290918902A1
:102DE0000E945D05109289021092880280E00E9484
:102DF0002A09882349F00E942B0B0E94800B82E253
:102E00000E94BF0910928F0280E00E94410988232E
:102E100061F1EBECF3E090E080E02191DC01A75759
:102E2000BC4F2C93019680329105B9F78091CA036B
:102E3000811118C090E080E0FC01E757FC4F208131
:102E4000FC01E755FC4F2083019680329105A1F7E4
:102E5000809185028093860283E00E94120A84E0BA
:102E60000E94120A82E20E94120A80E00E94130964
:102E7000882309F479C0D0E00BC0ED2FF0E0E553D2
:102E8000FC4F8081883040F48F5F0E949F0ADF5F93
:102E900080918F02D81788F30E949009882391F0BF
:102EA000E0918F02E03270F491E09E0F90938F02D8
:102EB000F0E0E553FC4F81508083E92FF0E0E553CB
:102EC000FC4FD082809167028230B1F50E941007DA
:102ED000C82F82958F708C3079F59091BB028C2F22
:102EE0008F70981329C00E94EC06892B29F10E944B
:102EF000F706C82F87FD20C0869586958695809316
:102F00008B02C770C0938903C093CB03C093A903FE
:102F1000D0928A03D092CC03D092AA036091A903E5
:102F20008091C8020E9485120E94F80A8091A9032C
:102F30008F5F0E949F0AC0E080916702882309F496
:102F400011C180916702823009F055C1CC3F09F46C
:102F500014C180916702823009F096C186E08C0F1F
:102F6000823008F02AC15BC18FE00E9413098823D8
:102F700009F442C00E946409D82F8FE00E942A09F8
:102F8000811105C08EE00E942A09882339F00E9431
:102F90002B0B0E94800B82E20E94120A8FE00E949B
:102FA0001309882309F460C084E00E94120A83E0B8
:102FB0000E94BF09DF3F11F0D09385028091860205
:102FC00087FD0AC00E94240B811106C00E94800B5D
:102FD000809186020E941A0B809185029091860250
:102FE00089130E94060B8091CA0381116BCF8091D7
:102FF00085028093860266CF8EE00E9413098111BC
:10300000B9CF8FE00E944109882309F457C00E947C
:103010002B0B0E94800B0E947A09D82F8111BAC114
:103020000E94A6098111A1C169EA73E089E893E0D1
:103030000E943616811157C080918A038F3F49F450
:103040008091AA038F3F29F48091A9038F5F0E948A
:10305000D10AF12CE12CF701E757FC4F8081893030
:10306000A8F10E94B70E2ECF8EE00E94130988238C
:1030700009F4B9CF83E00E94120A84E00E94BF09DC
:10308000DF3F19F0DC50D09385028091860218163C
:1030900064F0845F0E94240B811107C00E94800BA2
:1030A00080918602845F0E941A0B80918502909124
:1030B0008602891709F497CF845F93CF8EE00E9430
:1030C00041098111A4CFA7CF877059C180818F5F3B
:1030D0000E949F0AFFEFEF1AFF0A20E2E216F104B6
:1030E00009F0B9CFBECFB12CA12CC50187559C4F9B
:1030F0007C01FC018081893008F0B3CF8091CA0344
:10310000882311F19081E091C903F0E0E755FC4F6D
:103110008081981319C0F70180818F5F0E94DD0ABA
:1031200081110AC0F70180818F5F0E94C50AF701F3
:1031300080818F5F0E94D10AFFEFAF1ABF0A20E2A1
:10314000A216B10491F68DCFF70180818F5F0E94A6
:10315000DD0A81110E94800BF70180818F5F0E9440
:103160009F0AEACF81E00E942A09882309F4E9CE68
:103170008091CA03882309F4E4CE1092CA0380E048
:103180000E94A90D0E94A50780916702813011F06D
:103190000E94D30781E20E94120A0E94800B0E94C3
:1031A0003A0A8091C1028B3021F0877F873009F085
:1031B00067C08091C8020E94480A8091CA03882390
:1031C00009F492C080916702823009F07AC0809140
:1031D000680290916902181619060CF085C080915A
:1031E0006802909169020397909369028093680244
:1031F0000E947201A5CD813021F40E94EB0781115C
:10320000BCCF809167028111A4CE81E00E942A097F
:10321000882309F49ECE8091CA0381119ACE81E25F
:103220000E94BF098091C1028B30B1F56091A90362
:103230008091C8020E9485121092910280916702CB
:10324000823011F4CB3F31F01092C9031092740315
:10325000109273031092660210927402109273021D
:103260001092720281E08093CA038AEF0E94BD0629
:1032700080916702813009F4A0CF0E94AF079DCFF3
:103280008091C802877097CF813009F096CF0E9455
:10329000D9078111C4CF91CF877F873039F26091F0
:1032A000A9038091C80287700E94420F80914C034D
:1032B00090914D0390936F0380936E030E94E30EF1
:1032C000BBCF813089F480917202909173021816FD
:1032D000190654F4809172029091730203979093AF
:1032E00073028093720284CF86E10E942A098823A8
:1032F00061F080918D0291E0811190E090938D02B8
:10330000811127C082E00E94BF0985E10E942A093D
:10331000882361F080918E0291E0811190E090937A
:103320008E0281111AC081E00E94BF0984E10E94CF
:103330002A09882309F404CD80918C0291E081113F
:1033400090E090938C0281110CC088E00E94BF092C
:10335000F7CC82E00E94120AD8CF81E00E94120AC4
:10336000E5CF88E00E94120AEBCC9091C1028091D7
:10337000C8029B3021F0977F973009F0A5CE80934B
:103380008A028091CA0381114FCE80918A02809374
:103390008B021DC00E94F80AD150D0938903D093AC
:1033A000CB03D0928A03D092CC038091CA038111BF
:1033B0003BCE90E080E0FC01E757FC4F2081FC0110
:1033C000E755FC4F2083019680329105A1F70E94BA
:1033D0003A0A80918A020E94480A8091850280936D
:1033E000860222CE0E94FA050E94D9050E9498000A
:1033F00080919202809396020E94FD070E948C06A3
:103400007894C2E0D1E00E944308E091C102E0312B
:10341000D0F7F0E0EB55F54E0C947F1A109267024E
:103420000E94310CF0CF109267020E943713EBCF4D
:10343000109267020E944F16E6CFD0936702FACF30
:10344000C0936702F7CF109267020E94B30FDBCFE1
:10345000109267020E943507D6CF109267020E9431
:10346000B00DD1CF109267020E94A8000E942B0AD3
:103470000E9443088091C1028830D1F30E94AE00BF
:10348000C2CFC0936702D1CF0E942B0A0E944A0B81
:10349000BACFAA1BBB1B51E107C0AA1FBB1FA617AF
:1034A000B70710F0A61BB70B881F991F5A95A9F7ED
:1034B00080959095BC01CD010895A1E21A2EAA1B1A
:1034C000BB1BFD010DC0AA1FBB1FEE1FFF1FA217D4
:1034D000B307E407F50720F0A21BB30BE40BF50BD1
:1034E000661F771F881F991F1A9469F7609570955A
:1034F000809590959B01AC01BD01CF010895EE0F21
:10350000FF1F0590F491E02D0994F894FFCFD101AD
:10351000BF012B02BF01DF02BF014E02B801DF0273
:10352000BF014E022B02DF02BF014E02A503BF0105
:10353000FA03BF012C04BF0122048F032C04BF0136
:103540002204FA032C04BF012204281A231A441A65
:10355000131A2D1A1D1A031A1D1A321A201A441A88
:0A356000201A411A181A0E1A181A40
:10356A0064207F0104050607111210130409050AD5
:10357A0006070B110C120D101320191A180C0B0A3E
:10358A0009201B191C1A180F0C0E0B0D0A092221EF
:10359A00252320191A18241B1C0F0E0D04030A0CCC
:1035AA000B090801020026271D1E1F1012111314F1
:1035BA0015161705060700070E091C1B1215383FBA
:1035CA00363124232A2D70777E796C6B6265484FD9
:1035DA00464154535A5DE0E7EEE9FCFBF2F5D8DFC9
:1035EA00D6D1C4C3CACD90979E998C8B8285A8AF39
:1035FA00A6A1B4B3BABDC7C0C9CEDBDCD5D2FFF829
:10360A00F1F6E3E4EDEAB7B0B9BEABACA5A28F8898
:10361A00818693949D9A2720292E3B3C35321F1888
:10362A00111603040D0A5750595E4B4C45426F68F8
:10363A00616673747D7A898E878095929B9CB1B6F8
:10364A00BFB8ADAAA3A4F9FEF7F0E5E2EBECC1C658
:10365A00CFC8DDDAD3D4696E676075727B7C515648
:10366A005F584D4A4344191E171005020B0C2126B8
:10367A002F283D3A33344E49404752555C5B7671A8
:10368A00787F6A6D64633E39303722252C2B060118
:10369A00080F1A1D1413AEA9A0A7B2B5BCBB969108
:1036AA00989F8A8D8483DED9D0D7C2C5CCCBE6E178
:1036BA00E8EFFAFDF4F30409050A06070B110C12E8
:0436CA000D101300CC
:00000001FF
