:1000000037C0000051C000004FC000004DC00000CC
:100010004CC0000049C0000047C0000045C00000BF
:1000200043C0000075C400003FC000003DC0000098
:100030003BC0000039C0000037C0000035C00000E0
:100040009AC0000031C000002FC00000C6C50000EB
:100050000C94B30B29C0000027C0000025C000008D
:1000600023C0000021C000001FC000001DC0000010
:1000700011241FBECFEFD4E0DEBFCDBF11E0A0E062
:10008000B1E0E8ECF8E302C005900D92AC35B107A1
:10009000D9F722E0ACE5B1E001C01D92A23FB20762
:1000A000E1F750D50C94341CABCF1F921FB61F92B2
:1000B00011242F933F938F939F9389B383709091D3
:1000C0009E019817D1F02091990130919A019330B7
:1000D000E1F4215031098230F1F020919901309101
:1000E0009A012D3291E03907D8F02CE231E03093BB
:1000F0009A012093990180939E019F918F913F9146
:100100002F911F901FBE1F901895923031F78330AA
:1001100021F72F5F3F4F30939A0120939901DDCF54
:100120002431310540F724E130E0E1CF89B7816027
:1001300089BF8BE083BF8AEF81BF089589B7816053
:1001400089BF8BE087BD82E382BD0895EDE7F0E0D3
:10015000808184608083089585E20E945B09EDE7D9
:10016000F0E080818B7F8083089580917D0082FB09
:10017000882780F908951F920F920FB60F921124CD
:100180002F933F934F935F936F937F938F939F939F
:10019000AF93BF93EF93FF93809172018F3F29F04C
:1001A000809172018F5F809372018091860190919E
:1001B0008701019649F0809186019091870101960F
:1001C000909387018093860180917E0190917F01B9
:1001D000019649F080917E0190917F010196909364
:1001E0007F0180937E0180916401813059F480B356
:1001F0008295817090916A01992309F43EC08093A1
:100200006A011AC080916D0190916E01892BA1F055
:1002100080916D0190916E01019790936E01809392
:100220006D0180916D0190916E01892B29F4949854
:10023000809164018130D9F298DF81110DC08091E5
:100240005C01883C51F510925C010E94AE0A8091DD
:100250005C018F5F80935C01FF91EF91BF91AF9143
:100260009F918F917F916F915F914F913F912F91CE
:100270000F900FBE0F901F901895882309F4BFCFE1
:1002800080916F019091700101969093700180931D
:100290006F0188EF1FD581E0B2CF80915C01843679
:1002A000B1F60E949B0AD3CFCF93C82F90919601AD
:1002B0009F3F51F080919201991F9927991F982B88
:1002C000B1F081E00E94C90C809162018F3F69F01A
:1002D00020919201982F991F9927991F922B29F00D
:1002E000982F9F7309F08C0F12D5CF91089580E05D
:1002F0000E94C90C80919601982F9F7309F08C0F72
:1003000006D5E2CFCF93C82F80919101882329F0A1
:1003100080919601807C8093960140919601842F74
:100320008F7309F4C0E0309193012091920146FB54
:10033000442740F9432B60916201661F6627661FC0
:10034000622B8C0F0E94B30C809196018C0FC8D445
:10035000CF910895CF93C82F6FEA72E08FE892E0B3
:100360000E94A916882331F09091900180918F010D
:100370009817D1F030E020E0F901E157FD4F80817E
:10038000F901E155FD4F80832F5F3F4F203231054A
:1003900099F7C1111092CF0210928301109282013D
:1003A0000E94730A0E94C20A80918F01809390017B
:1003B0008091820180938301CF91089590919B0158
:1003C000892F881F8827881F292F229526952695F3
:1003D00023708227292F22952F708227292F269577
:1003E000269582278170990F892B80939B01089510
:1003F000CF93C091C6016091060166956695F89409
:100400002091710170E088E190E00E94C21B2617E4
:1004100017069CF01092710190916101992321F0CF
:1004200080918D0180938E018091630180FD05C0D4
:1004300081E0911180E0809361018091640181509D
:10044000823028F08091710180FF22C094988091C1
:100450006101882309F19091710180918E019813B7
:100460001FC0809171018F5F8093710180915F0146
:1004700091E0811190E090935F0190915E01911164
:1004800017C090915D019923B1F0811114C03DC254
:10049000949A88EF1FD4DBCF80917101882309F3F0
:1004A000809171018F5F809371017894CF9108954D
:1004B000882309F425C280916301883010F01092DE
:1004C000630180916301C15080FF74C1CF3060F43B
:1004D000EC2FF0E0EA5CF34E0C94F71B80E00E94F6
:1004E000C90C8091960113D480916301843008F087
:1004F000FEC185E2ADD60E94AE0A0E948C0A8091B0
:1005000063018F5F80936301D0CF80917D02811161
:1005100004C080917102882361F0909196019F3F01
:1005200041F080919201991F9927991F892B0E9470
:10053000C90C809171028823B9F290917A0280915E
:100540000601981740F4E0917A02F0E0E158FD4F7F
:1005500080818F3F49F610927A02809178028F5FF6
:100560008093780280917802803158F4E09178028B
:10057000F0E0EE0FFF1FEF5AFD4F80819181019651
:1005800011F410927802E0917802F0E0EE0FFF1F74
:10059000EF5AFD4F80819181909374028093730292
:1005A0008091730290917402019621F48FEF8093F1
:1005B0007F029ACF0E94690E80938301B5D694CFB3
:1005C00080917D02882309F48FCF809183016CDEB6
:1005D00090917A0280910601981748F4E0917A028E
:1005E000F0E0E158FD4F80818F3F09F07DCF109200
:1005F0007A027ACF8091D002882309F475CF809156
:10060000830152DE80918B01882379F120917A0257
:10061000809105018150990B2817190631F58091B9
:100620008201809383018091880190915E019817E7
:1006300049F080935E0180935F0191E0811190E029
:1006400090935D016FEA72E08FE892E00E94A91634
:1006500081110BC08091060180937A0291E0909302
:1006600005018093040110928B0190917A02809190
:100670000601981748F4E0917A02F0E0E158FD4F46
:1006800080818F3F09F030CF8091880190915E0189
:10069000981749F080935E0180935F0191E081118A
:1006A00090E090935D0110927A028091CF028F5F6B
:1006B0008093CF028091CF02803240F4E091CF024C
:1006C000F0E0E155FD4F80818F3F11F41092CF0291
:1006D00081E040DEE091CF02F0E0E155FD4F608126
:1006E000809190010E94B711FFCE8091D0028823A3
:1006F00009F4FACE80917302909174020E943F0E29
:1007000090918301890FD0DD90917A02809106014A
:10071000981748F4E0917A02F0E0E158FD4F8081AB
:100720008F3F09F0E1CE10927A02809178028F5FBC
:100730008093780280917802803158F4E0917802B9
:10074000F0E0EE0FFF1FEF5AFD4F8081918101967F
:1007500009F5109278028091CF028F5F8093CF02CB
:100760008091CF02803240F4E091CF02F0E0E15579
:10077000FD4F80818F3F21F41092CF0280E0EADDAF
:10078000E091CF02F0E0E155FD4F60818091900152
:100790000E94C20EE0917802F0E0EE0FFF1FEF5AC8
:1007A000FD4F8081918190937402809373020E9427
:1007B000690E9ACE8091960180936201CF3008F045
:1007C00093CEEC2FF0E0EB5BF34E0C94F71B809193
:1007D000950180939601F2DD8093950180919601B9
:1007E00040E060E08F730E94B30C8091960178D254
:1007F0007BCE80917D02811105C08091710288239A
:1008000009F472CE80917D02882381F090917A0262
:1008100080910601981740F4E0917A02F0E0E158E7
:10082000FD4F80818F3F11F410927A02E0917A029D
:10083000F0E0E158FD4F8081809396010E94C2163E
:1008400080937A02809196018F3F09F44DCE80917A
:10085000830158DD49CE80917D02882309F444CE7E
:1008600063D580917A026DD5E0917A02F0E0E1588B
:10087000FD4F8081809396010E94C21680937A0278
:10088000809196018F3F09F42FCE909160019111D4
:100890000BC0A7D680917302909174020E943F0E04
:1008A00090918301890FD5CF809179024AD5F2CFFB
:1008B0008091D002882321F037D580917A0241D5EA
:1008C0008091D002882309F40FCEE0917A02F0E003
:1008D000E158FD4F8081809396010E94C21680935B
:1008E0007A02809196018F3F09F4FECDD3CF80919B
:1008F0006301883008F001CE85E2DDD41CD6FDCD41
:1009000080915D01882309F4D0CD10925D01CDCD99
:100910001F920F920FB60F9211242F933F934F9374
:100920005F936F937F938F939F93AF93BF93EF9357
:10093000FF9380919C0190919D01909389008093F9
:10094000880056DDFF91EF91BF91AF919F918F91FC
:100950007F916F915F914F913F912F910F900FBEBB
:100960000F901F901895159BFECF83B990E080E003
:1009700008958F708A3018F4805DF5CF0895895CF2
:10098000FCCFCF93DF93EC01892F992782958F704D
:10099000009709F0EEDF8D2F9927009709F0E9DF26
:1009A000CE0124E0969587952A95E1F7009709F006
:1009B000E0DF8C2FDEDFDF91CF91089582B1082E2A
:1009C000000C990B892F881F8827881F90E00895B5
:1009D000179BFECF83B190E008959C01E199FECF73
:1009E0003FBB2EBBE09A8DB308959C01E199FECFE9
:1009F0003FBB2EBB6DBBF894E29AE19A78940895C0
:100A0000CF93DF93EC01449710F4C4E1D0E0CD32F2
:100A100081E0D80710F0CCE2D1E0D0939801C093E8
:100A20009701D0939A01C09399016D2F85E090E0D2
:100A3000DCDF6091970186E090E0D7DF809197013D
:100A40009091980176D680E38C9F90018D9F300D18
:100A5000112450E040E060E070E788E399E30E94F1
:100A6000D51BCA01887F892B01F593E056954795E0
:100A7000379527959A95D1F730939D0120939C0146
:100A800082E080938A0080919C0190919D019195D4
:100A90008195910990939D0180939C019093890089
:100AA00080938800DF91CF91089584E05695479513
:100AB000379527958A95D1F730939D0120939C0116
:100AC00086E0DFCFCF93EBE6F0E08081816080832A
:100AD0008081826080838BB788608BBF85E090E0E7
:100AE0007CDFC82F86E090E078DF9C2F89DF1092B2
:100AF0006301EDE7F0E0808184608083CF91089509
:100B000081B1886181B983E380B91CBE57DF892B2D
:100B1000A9F40F9A8AB188698AB98FE189B910BCA2
:100B200080EC8ABB8CE38BBB8BEB87BB18BA8FEF57
:100B300084BB81BB86B981E58DB9089549DF8AE020
:100B400043D0E4CFDDDFBEDFF1DA809197018093FF
:100B50009B01DFD192D07894C2E0D1E020D2E09125
:100B6000C601E031D8F7F0E0EC5AF34E0C94F71BD5
:100B70001092640199D5F2CF109264010E94301650
:100B8000EDCF109264010E94FD16E8CFD09364016E
:100B9000FACFC0936401F7CF109264010E942B0F2B
:100BA000DDCF1092640109D1D9CF10926401F8D63B
:100BB000D5CF10926401CADAA8D3F1D18091C601D1
:100BC0008830D9F3C9DACACF20EA3FE0E22FF32F09
:100BD0003197F1F78A95D1F708951F921FB61F92AA
:100BE00011248F939F93EF93FF938CB18A3F21F54C
:100BF0001092660110926501E091680191E09E0FEC
:100C000090936801F0E0E056FE4F80838091680188
:100C10008F718093680190916801809169019813A8
:100C20001EC0809169018F5F809369018091690185
:100C30008F718093690113C0883FF1F68091640140
:100C4000823021F4949A85E080936D018091650152
:100C50009091660101969093660180936501FF91E2
:100C6000EF919F918F911F901FBE1F90189590E05C
:100C7000B4DE803108F08FE0089583E0F8DF8093E0
:100C8000C00184E0F4DF80939F0108959091620198
:100C9000981305C080E07DD68FEF809362010895A0
:100CA000962F611105C0882319F060E0EFCF0895F9
:100CB0002091620180936201811101C089E161E0AC
:100CC0002F3F09F460E0895141E0953608F440E097
:100CD0004AC608955D9BFECF8CB990E080E00895F0
:100CE000CF93C82F80919F018069F4DF8C2F8F7381
:100CF00029F4F0DF80E0EEDFCF910895875EEADF30
:100D000080910201C6FDF7CF80910001F4CFCF930F
:100D1000C82F80919F018068DDDF8C2F8F7331F4A5
:100D2000D9DF80910101D6DFCF910895875EF8CF9A
:100D3000309169012091680181E090E0321302C096
:100D400090E080E008959091690180916801981782
:100D5000D1F3F894E091690181E08E0F80936901ED
:100D6000F0E0E056FE4F8081909169019F71909371
:100D70006901789490E00895DBDF892B11F480E01D
:100D80000895E1DF9C0187FFFACF982F92959F701D
:100D90009F3049F02F7033274091C001421713064E
:100DA00071F790936701089580919F01806B92DFA6
:100DB0008BE790DF80E08ECF0895CF93DF93CCD97F
:100DC000B3D28091C001BDD2EAD084E6FDDEE7D087
:100DD00084E6FADEE4D0D091CD018FEF80936201FA
:100DE000DED08091C601882321F0DEDFDF91CF9134
:100DF00008956091CD016D1759F06093C00183E0B3
:100E000090E0F3DD91D28091C0019BD2D091CD01D1
:100E10008FDF892B29F397DF9C01C82F87FF0EC036
:100E2000982F92959F709F3039F02F703327409103
:100E3000C0014217130689F49093670190916701EE
:100E4000983071F0993061F687FF02C07CDFC82FBF
:100E50007ADF682F8C2F24DFC3CF10926701C0CFB9
:100E600087FF02C070DFC82F6EDF682F8C2F0EDF68
:100E7000B7CF80916401823019F08CEF2BDF94CFD3
:100E80000895CF9372D9C82F809164018130A9F061
:100E9000C11162D99498979A85E096DE80919C0161
:100EA00090919D010A9790938900809388001092F9
:100EB000710110926301C11149D9CF9108958091B8
:100EC0006401813009F09798089580B3881F8827BE
:100ED000881F90916C01911106C0882321F091E048
:100EE00090936C01089580936C0180E0089580B325
:100EF000881F8827881F90916B01992331F08111F9
:100F000004C010926B0181E0089580936B0180E032
:100F1000089581B3806F81BB82B38F7082BB0895C7
:100F200081B38F7081BB82B38F7082BB0895F894B8
:100F3000C0980000000000000000C09AFC01039669
:100F40001FB8779BFECF2FB12193E817F907C1F7A0
:100F500078940895DE980895DE9A089589B3869569
:100F600086958F70282F30E0982F969592708695F1
:100F700086958695982BA901440F551F4470942B94
:100F800043E0220F331F4A95E1F72870922B8FE040
:100F9000891B089589B3869586958F700895AF92C1
:100FA000BF92DF92EF92FF920F931F93CF93DF9345
:100FB00000D000D000D0CDB7DEB72091990130919C
:100FC0009A0180919701909198012817390729F08B
:100FD0008091990190919A0113DD1092C3011092B2
:100FE000CA011092C4011092CB011092C501109257
:100FF000CC0180917201843108F487C01092720193
:10100000A9DFCE01049693DF8091C7018983809187
:10101000C8018A838091C9018B8390E041E050E050
:10102000292F26952695269530E0F901E953FE4FA4
:10103000F080892F8770BA0101C0660F8A95EAF7A0
:10104000890102531E4FD8018C91A4E0B0E0AC0F8F
:10105000BD1F2A0F3B1FD9013C91262F20952F2120
:10106000AF2DA62309F461C0832B8623822B8083B6
:101070009F5F9831A9F672DF9091CD01981749F0E2
:101080009091C201981305C08093CD0191E0909397
:1010900073018093C20160DFFE0134960EEC11E013
:1010A000BE016F5F7F4F47EC51E023EC31E08AECEB
:1010B000A82E81E0B82E7E01B7E0EB0EF11C8191E5
:1010C000D8018D938D01DB01DD90BD01DA018D9199
:1010D000AD019D2D90959823D9019D939D018095FB
:1010E0008D21D5018D935D01EE16FF0641F752DF8C
:1010F0009091C601981731F09091C101981302C0E8
:101100008093C6018093C10107D226960FB6F8944A
:10111000DEBF0FBECDBFDF91CF911F910F91FF902A
:10112000EF90DF90BF90AF900895862383239ECFEA
:10113000282F283190F4E22FE695E695E695E60F04
:10114000F72FF11D9081892F90E0277002C09595AF
:1011500087952A95E2F78170089580E0089567ECFD
:1011600071E0E6CF08950F931F93CF93DF93D62FAF
:101170008C01C0E0F80181918F01F1DFCF5F811117
:1011800003C0CD13F7CFC0E08C2FDF91CF911F911B
:101190000F91089563EC71E0CBCF08950F931F93E7
:1011A000CF93DF93D62F8C01C0E0F80181918F019E
:1011B000F1DFCF5F811103C0CD13F7CFC0E08C2FDB
:1011C000DF91CF911F910F9108956AEC71E0B0CF3C
:1011D00008959091C7018091C801982B8091C90111
:1011E000982B81E009F080E008956DE087E091E0C0
:1011F000BADF8150089568E087E191E0B4CF0895A7
:1012000068E087E191E0CACF089560E187E091E06E
:10121000C5CF08956DE087E091E0C0CF089580913B
:101220007301109273010895883288F4E82FE695CF
:10123000E695E695E60FF72FF11D877021E030E087
:1012400001C0220F8A95EAF78081822B808308955E
:1012500069E771E0E9CF089564E771E0E5CF0895AB
:10126000883298F4E82FE695E695E695F0E0EC589C
:10127000FE4F282F277081E090E001C0880F2A954B
:10128000EAF780959081892380830895883288F4D5
:10129000E82FE695E695E695F0E0EC58FE4F87706E
:1012A00021E030E001C0220F8A95EAF78081822395
:1012B000089580E00895883298F4E82FE695E69541
:1012C000E695F0E0E758FE4F282F277081E090E088
:1012D00001C0880F2A95EAF7809590818923808341
:1012E0000895E82FE695E695E695F0E0E758FE4F7D
:1012F000208130E08770A90102C0559547958A95F5
:10130000E2F7CA01817099270895E9E7F1E01482B4
:101310001382128211821082E4E7F1E014821382B8
:101320001282118210820895CF93DF93CCE4D1E032
:101330008991C1DF81E0CC35D807D1F7DF91CF911A
:101340000895803130F4E82FF0E0E45BFE4F8081B7
:101350007FCF0895803130F4E82FF0E0E45BFE4F5A
:1013600080817ACF0895803138F4E82FF0E0E45B93
:10137000FE4F8081B6CF089580E00895803138F423
:10138000E82FF0E0E45BFE4F808180CF089580E09D
:101390000895883130F4E82FF0E0EC5CFE4F808156
:1013A00057CF0895883130F4E82FF0E0EC5CFE4F21
:1013B000808152CF0895883130F4E82FF0E0EC5C62
:1013C000FE4F808178CF0895CF93DF93C4E3D1E0BF
:1013D000899171DF81E0CC34D807D1F7DF91CF91CB
:1013E00008959FEF980F983030F4E82FF0E0E25E18
:1013F000FE4F80812DCF08950F931F93CF93DF93DE
:10140000D82F0FE111E0C1E0F80181918F01DC13C9
:1014100009C01EDFCF5FC930B9F7DF91CF911F91AF
:101420000F91089548DFF6CF9FEF980F983030F472
:10143000E82FF0E0E25EFE4F80813DCF08959FEF00
:10144000980F983030F4E82FF0E0E25EFE4F808194
:1014500003CF08959FEF980F983038F4E82FF0E00D
:10146000E25EFE4F808112CF089580E008959FEFE5
:10147000980F983038F4E82FF0E0E25EFE4F80815C
:1014800030CF089580E00895CF93DF93CFE1D1E08E
:10149000899111DF81E0C732D807D1F7DF91CF9171
:1014A00008958D3030F4E82FF0E0E95DFE4F808143
:1014B000CFCE08958D3030F4E82FF0E0E95DFE4F97
:1014C0008081F9CE08958D3030F4E82FF0E0E95DA9
:1014D000FE4F8081C1CE0895E82FF0E0E95DFE4F18
:1014E0008081D4CE0895CF93DF93C7E2D1E0899174
:1014F000E2DE81E0C433D807D1F7DF91CF910895C0
:10150000F2DF84E0D8DE83E0D6DE88E0D4DE81E05E
:10151000D2DE82E0D0CE0895F894DF98E9E7F1E0DA
:1015200081918FB9779BFECF81E0EE37F807C1F745
:10153000DF9A78940895CF93DF93E9E7F1E0A4E789
:10154000B1E081919D91EF012197892B888381E002
:10155000EE37F807B1F7DF91CF910895CF93DF937E
:10156000E9E7F1E0A4E7B1E091918D91EF012197D6
:1015700080958923888381E0EE37F807A9F7DF910A
:10158000CF910895CF93DF93E9E7F1E0A4E7B1E0CD
:1015900091918D91292F282329F0EF012197809592
:1015A00089238883ED012197188281E0EE37F807BF
:1015B00079F7DF91CF910895CF93C82F84E07BDE38
:1015C00083E0C23019F448DECF91089574DE83E0E1
:1015D00047DE83E0C13019F0CF3FB1F784E038DE59
:1015E000F3CFEF92FF920F931F93CF93DF93C82F08
:1015F00086E1C7FF0FC0CDDE85E1C6FF0DC0C9DEA5
:10160000CF7331F08FEFC73168F0C43238F4CC506B
:1016100080E008C0D0DEF0CFCEDEF2CFC03368F479
:10162000C85181E0C9DFC11110C05DDF84E1B1DEC6
:10163000CDB7DEB7E6E00C94251CCC3318F4C452C9
:1016400082E0F0CFC05383E0EDCF84E1B4DE87E2E7
:10165000E82E81E0F82E0BE010E0D0E0C017D107B3
:1016600019F0F701808127DE0F5F1F4FFFEFEF1AA0
:10167000FF0A0831110591F7C45EDE4F8881E8DD6D
:10168000D7CF0F931F93CF93DF93EC018C01060FFD
:10169000171FC017D10729F4DF91CF911F910F9128
:1016A0000895899160D9F5CF7ADC8091C6018E309A
:1016B000D9F32BDE31CF0895CF93FC01680F791F4A
:1016C00080E02EE03CE148E350E7A0EEB7ECC9E84B
:1016D000E617F70711F4CF91089591919827892F74
:1016E000817090FD87E091FD822792FD832793FD15
:1016F000842794FD852795FD8A2796FD8B2797FFE4
:10170000E7CF8C27E5CFCF93DF93C1EDD1E090E811
:101710009883198291E09A838B8364E070E0CE0114
:10172000CBDF8C8365E070E0CE01ABDFDF91CF9142
:101730000895CF93DF93C1EDD1E022E4288319828D
:1017400022E02A839827892798279C838B8365E04A
:1017500070E0CE01B1DF8D8366E070E0CE0191DFF5
:10176000DF91CF9108951F920F920FB60F9211241F
:10177000EF92FF920F931F932F933F934F935F939B
:101780006F937F938F939F93AF93BF93CF93DF9389
:10179000EF93FF93C3B180910301882309F43EC006
:1017A00080917E0190917F01893E934020F0BCDDC5
:1017B000B3DE1092810180918101803408F045C030
:1017C00091E0980F90938101E82FF0E0EF5EFD4FDC
:1017D000C08310927F0110927E018091810183303D
:1017E000E8F0C0911202D0911302DC27CD27DC274C
:1017F0009E012C5F3F4F8217130680F02396BE0197
:1018000081E192E059DFCF5EDD4F9881891709F1C0
:1018100090E0B7D81092810180E075DFFF91EF91E1
:10182000DF91CF91BF91AF919F918F917F916F91F8
:101830005F914F913F912F911F910F91FF90EF90EA
:101840000F900FBE0F901F9018955DDF10928101D1
:10185000C0CF80911102909113028134B1F058F4FD
:10186000803459F08131F1F030F4813009F478C0DE
:10187000803109F450C080E074C08091970190914C
:10188000980157DF10928101C9CF9230A1F7809162
:10189000140290E0982F882720911502820F911D45
:1018A000AFD8F0CF923039F7C0911402E8E0CE9F64
:1018B000C0011124C0911502C80FD92FD11D24E0F9
:1018C000CC0FDD1F2A95E1F789E18093D1011092B9
:1018D000D20180E18093D30134EDE32E31E0F32E89
:1018E00010E000E0CE01800F911FB2D1F70181938B
:1018F0007F010F5F1F4F00311105A1F763E170E019
:1019000081ED91E0D9DE8093E40164E170E081ED46
:1019100091E0B7DEB7CF923109F0ADCFC09114029C
:10192000F8E0CF9FC0011124C0911502C80FD92F34
:10193000D11D84E0CC0FDD1F8A95E1F796E1E92EF9
:1019400092E0F92E10E000E0BE01600F711FF70178
:1019500081917F0141D10F5F1F4F00311105A1F728
:1019600081E0D1DE8FCF3A98611160E490E04111BF
:1019700001C090E8882349F0803408F08FE3862B7B
:10198000892B85BB3A9A399A0895862F892B85BB76
:101990000895882319F0AE9A3A9808953998FCCFA3
:1019A000A0E8B0E0E6EDFCE00C94001C0E94AC0066
:1019B000BBDCF5DA34DCE12CF12C10E000E05CE07B
:1019C000552E4E0181E8880E911CE9DA8091C601FE
:1019D000843009F0FBC080919F01C5DC811104C0F7
:1019E000A3DC80919F01ADDC1ADC882341F060917B
:1019F000CD0160939F0184E090E00E94F504802F68
:101A0000DBDD059D802D112427E1B22EB80E7F2C41
:101A10007294770C770C30EC732247E0C42E41E0CF
:101A2000D42EA12CF60161906F01862DB3DB8823A3
:101A300059F04F2D6E2D8B2D96DF8B2D872950D988
:101A40008A2D2FDDEE24E394862DBFDB882329F039
:101A50008B2D87295CD98A2D2DDDA394B394FDE0CD
:101A6000AF12E0CF8FE096DB882309F45EC002302E
:101A7000110514F40F5F1F4F85E18CDB882331F0D3
:101A800081E0F1105EC0E4DBFF24F39488E082DBA8
:101A9000882381F181E063DB882361F1A090CD018F
:101AA00090E8A99E5001112480EF14D98DE712D936
:101AB00083E010D983E00ED982E10CD980E00AD905
:101AC00080E008D980E006D9D12CC12CC5018C0D4D
:101AD0009D1DBED0782E82958F70FCD8872D8F707B
:101AE000F9D8EFEFCE1ADE0AF0E8CF16D10471F77D
:101AF00087EFF0D883E04EDB882351F081E02FDBC5
:101B0000882331F0C090CD0187E129DB8823E1F003
:101B100083B38F7309F459CF5CDB882309F455CF65
:101B200080E037DFE0DCE12C50CF8EE033DB882330
:101B300009F4A2CF0F3F100709F49ECF01501109FD
:101B40009BCFB9DBF12CA2CF17D98823E9F2803FD4
:101B5000F9F6F9D88D379105D9F6F5D80397C1F67E
:101B6000F2D80397A9F6EFD8429791F6ECD8892BD3
:101B700079F6E9D8892B09F0CBCFE5D8892B09F084
:101B8000C7CFCE0101965C013C0187E1E8DA811103
:101B90000DC0D9D8D82ED7D8D29490EFD922D80E4C
:101BA000F301D1923F01E815F90579F7F0E8CF9EEE
:101BB00060011124B601F50181915F010DD0FFEFA5
:101BC000CF1ADF0AA814B904A9F7A2CFEDD8C058DC
:101BD000DF4FEFE00C941C1CF89425E0C098000047
:101BE0000000000000002FB9779BFECF000000002E
:101BF000000000001FB8779BFECF9FB1C09A000085
:101C000000000000000090FDE9CFC0980000000037
:101C100096E09FB9779BFECF00000000C09A0000BD
:101C2000000000000000C0980000000092E09FB992
:101C3000779BFECF7FB9779BFECF6FB9779BFECFA7
:101C40008FB9779BFECF00000000C09A789408956A
:101C5000F894C0980000000023E02FB9779BFECFD6
:101C60009FB9779BFECF8FB9779BFECF0000000016
:101C70001FB8779BFECF8FB1C09A78940895892FB3
:101C80008F7194FD806E089580918301811105C04C
:101C900083E011DB84E00FCB089587FF05C083E06C
:101CA0000ADB84E0D5CA089583E0D2DAF3CF81E07D
:101CB0008093760284E2CCDA37CB089510927602D4
:101CC00084E2F9DA22DB5EDC10927D0280E061CEF4
:101CD00008958091730290917402682F677023E0D9
:101CE000969587952A95E1F78F7041D3809173027D
:101CF00090917402AC01252F207820939101252F1B
:101D0000207420939301252F20722093920110922A
:101D10007A02B5CF089581E08093750281E298DA66
:101D200010929301109292011092910110927102FF
:101D300010927D0280915102909152029093740210
:101D400080937302019681F01092780210927A02C9
:101D500010929601BEDF809383018091630180FD24
:101D6000FCCF81E080937102DFCA08951092750262
:101D700010927D021092710280E00BDEC6DA02DC66
:101D80004ECA0895EF92FF920F931F93CF93DF9364
:101D900098E0899FE0011124C60FD11D45E0CC0FCA
:101DA000DD1F4A95E1F7D85FF12CE12CCE0150DF21
:101DB00090E0982F88278701000F111F0F5A1D4FA1
:101DC000F80191838083CE01019642DFF8012081E2
:101DD0003181282B31832083FFEFEF1AFF0A2296EF
:101DE00080E1E816F10411F7CDB7DEB7E6E00C9418
:101DF000251CEF92FF920F931F93CF93DF9328E060
:101E0000829FE0011124C60FD11D35E0CC0FDD1FEC
:101E10003A95E1F7D85F10E000E0C801880F991FFC
:101E2000FC01EF5AFD4F7F0180819181BE01892F16
:101E3000D3DEF70180819181BE016F5F7F4FCCDEE1
:101E40000F5F1F4F22960031110539F7CDB7DEB76E
:101E5000E6E00C94251CEF92FF920F931F93CF9313
:101E6000DF930E94A6008091CD018770809372025B
:101E700010927702109276021092750210927102FF
:101E800010927D02109278028FEF9FEF9093740270
:101E9000809373021092640147DA74DB0FEF1FEF37
:101EA000EE24EA94FE2C7BD88091C601813009F0A3
:101EB0004EC28091760290917502892BF9F4AFD9C8
:101EC000882349F08091CD018770809372026091E0
:101ED000770258DF29DA8091720233DA8CD9C82F61
:101EE000882341F000DB6FEF6C0F609377028091E5
:101EF000720248DF809177028F5F73DA81E04AD9FE
:101F0000882331F080917502882309F4F0C02EDF18
:101F10008091750290917602892B99F080917802D8
:101F20002DDA811101C02EDB8091780213DA8091C5
:101F3000730290917402019609F0DFC0E1DA80E04B
:101F400087D988E027D9882309F405C180917502D3
:101F5000882309F405C187E11DD98823E9F0809120
:101F600076028823A1F0809178028F3048F4E091C6
:101F70007802F0E0EE0FFF1FED5AFD4F1183008352
:101F8000F0927402E092730299DE80E094D960913D
:101F90007702809172022DDF80917602882309F406
:101FA00096C18091730290917402019609F48BC0DE
:101FB00084E1F0D88823A1F0E0917802F0E0EE0F00
:101FC000FF1FEF5AFD4F808191819058918380834C
:101FD0009093740280937302892F8078809391018B
:101FE00085E1D8D88823A9F0E0917802F0E0EE0FDF
:101FF000FF1FEF5AFD4F8081918120E4922791834A
:1020000080839093740280937302892F80748093ED
:10201000930186E1BFD88823A9F0E0917802F0E02F
:10202000EE0FFF1FEF5AFD4F8081918120E2922732
:10203000918380839093740280937302892F8072BE
:10204000809392018FE08BD8882309F4EEC0CDD81D
:10205000C82F8FE09FD8811104C08EE09BD88823C1
:1020600031F090DA40DA83E026D984E024D90C2ECE
:10207000000CDD0B8FE073D8882309F4E6C083E001
:10208000E7D8CF3FDC07B9F07DDA209173023091B9
:102090007402307EDC2FCC27C22BD32BD09374025A
:1020A000C0937302E0917802F0E0EE0FFF1FEF5A49
:1020B000FD4FD183C0838091730290917402DFDD64
:1020C0008093830100DA8FE04AD8811100C18EE04D
:1020D00046D88111FCC094D8C82F882309F4EAC0DF
:1020E000D3D922D9CC2309F401C1C15008C18091B0
:1020F00076028111E3DD0FDE0BCF80E0DCD880912A
:1021000073029091740223E0969587952A95E1F7E2
:102110008F7017D9809173029091740297FF12C04B
:1021200088E096D8809173029091740296FF0DC05A
:1021300081E08ED8809173029091740295FF08C05F
:1021400082E0FECE88E0B7D8EDCF81E0B4D8F2CF00
:1021500082E0B1D8F6CE83E01DD88111F7CEFBCE58
:1021600080E017DC80917602882309F457C088E06C
:1021700011D88823C1F0809178028F3058F4E09113
:102180007802F0E0EE0FFF1FEF5AFD4F8081918142
:10219000019619F41092780222C0809178028F5F24
:1021A000809378021CC080917802882349F0809146
:1021B00078028150F5CF809178028F5F809378020A
:1021C000809178028F3058F4E0917802F0E0EE0FC1
:1021D000FF1FEF5AFD4F80819181019661F7E091D9
:1021E0007802F0E0EE0FFF1FEF5AFD4F80819181E2
:1021F000909374028093730210927D02019609F409
:10220000AACE67DD8093830110927A0280916301E8
:1022100080FDFCCF81E080937D029DCE88E00E940E
:10222000CA088823E1F243DDB5CF8EE00E94AF08F3
:1022300081110DCF8FE00E94E5088823A9F183E08A
:102240003AD884E038D89ED93ECF8EE00E94AF08BD
:10225000882309F438CF84E00E942809CF3FDC07A7
:10226000D1F090D92C97DC2FCC27CC27DF7180912F
:10227000730290917402907EC82BD92BD093740274
:10228000C0937302E0917802F0E0EE0FFF1FEF5A67
:10229000FD4FD183C0838091730290917402EFDC73
:1022A00080938301845F0ECF8EE00E94E508811148
:1022B000C6CF09CF0E940F09811112CFE5DC8091B2
:1022C00073029091740287709927019695D8809136
:1022D0007502882309F4E7CDD7DC809173029091D1
:1022E000740287709927019687D8DDCD809173029B
:1022F000909174028F3F980711F0C82FC770109209
:102300007D0280E046DB8091CD0198E0899F9001BD
:1023100011242C2B3093740220937302E0917802E5
:10232000F0E0EE0FFF1FEF5AFD4F318320836C2F3B
:102330001ED010927A021092920110929301109284
:1023400091011092830181E080937D02B7CF0E94BA
:10235000AC0010927D021092710280E01ADB0E94A4
:102360008509DAD8CDB7DEB7E6E00C94251C0F93CB
:102370001F93CF93DF93D82FC62FCED828E0D29FBC
:10238000C0011124C80FD92FD11D84E0CC0FDD1F4F
:102390008A95E1F710E000E0CE01800F911F58DC34
:1023A000F801E158FD4F80830F5F1F4F0031110589
:1023B00099F780918E02813071F48FE0809306014D
:1023C0001092850180E00E943009A6D8DF91CF915C
:1023D0001F910F91089580E1F1CF8091D002882361
:1023E000D1F0809164018230D9F48091650190919F
:1023F0006601181619063CF00E94BC068093840101
:1024000081111CC0089510926601109265010E940E
:10241000F8010E94F80180916401823069F3089507
:10242000813099F480916F0190917001181619060E
:1024300064F41092700110926F01E9CF9091C6017F
:10244000933019F490E00C94C10408950F931F93F6
:10245000CF93DF93D82FC62F5FD828E0D29FC0013B
:102460001124C80FD92FD11D84E0CC0FDD1F8A9510
:10247000E1F710E000E0F801E158FD4F8081BE0176
:10248000600F711FA9DBA9DF0F5F1F4F003111051E
:1024900091F742D8DF91CF911F910F91089510923B
:1024A0007A0281E080937B0281E20E94280980E029
:1024B00070DA80916401811104C08091630180FD14
:1024C000FCCF81E080937D028093D0028AEF0C9450
:1024D0006A06089557D80E94E4090E9494098091E1
:1024E000CD010E94A10980E054CA089510927D0296
:1024F000F1DF10927B0281E20E945B091092D00210
:102500008CEF0C946A06089581E08093760284E251
:102510000E9428090E94940980E00E94A10980E09D
:1025200038CA08951092760284E20E945B091092E4
:10253000850180E00E945B09CDCF0895A5E0B0E061
:10254000E4EAF2E10C94081C82E00E94CA088823A5
:1025500099F080E00E94AF0881110EC080910601C1
:102560008F3009F04FC080E1809306018FEF809398
:102570008E0281E08093850180E00E94AF0888236D
:1025800009F445C080917B02882309F440C082E2AF
:102590000E94280982E00E94CA08882371F090E016
:1025A00080E02FEFFC01E158FD4F20830196803140
:1025B0009105C1F781E0809385010FDF80917B0257
:1025C000882381F080916401882309F472C080918E
:1025D0006401823009F499C1813021F40E947707A7
:1025E00081116DC08091640181119BC181E00E94C5
:1025F000CA08882309F495C180917602811196C199
:102600004EDF60C08FE08093060181E0B0CF80E0B4
:102610000E94E508882389F280917B02882369F271
:1026200080910601803149F685E0EAE8F2E0DE01BA
:10263000119601900D928A95E1F780918302909115
:10264000840290938B0280938A0280917F02809310
:102650008C02809188029091890290938E028093DF
:102660008D028091850280937F02809181029091FA
:1026700082029093890280938802809187028093DE
:1026800081028091800280938702809186028093EC
:10269000800285E0FE013196A2E8B2E001900D9241
:1026A0008A95E1F781E08093850182E20E945B09CF
:1026B00084CF81E00E94CA08882309F488CF16DFFE
:1026C0001092600180917B0290917602892B09F42F
:1026D000B7C080916001E0907902811102C0E09062
:1026E0007A02F12CC70181589D4F7C01FC011081B9
:1026F0001F731F3309F01CC100E084E10E94CA0867
:10270000811143C11F33E1F01123D1F083E00E9416
:10271000AF08811108C08FE00E94CA08882319F011
:1027200002300CF4145F83E00E94AF08811108C0EE
:102730008EE00E94CA08882319F00F3F09F01C5050
:102740000E940A09882321F01CE0019F102D11240A
:1027500084E00E94CA088111195E89E00E94CA08BB
:102760008111185E85E00E94CA088111175E8AE017
:102770000E94CA088111165E033069F186E00E944A
:10278000CA088111155E87E00E94CA088111145E93
:102790008BE00E94CA088111135E81E10E94CA0881
:1027A0008111125E8CE00E94CA088111115E82E1E3
:1027B0000E94CA088111105E8DE00E94CA08811132
:1027C0001F5D80E10E94CA0881111E5D83E10E94A5
:1027D000CA0881111D5DF70180818F3F11F41F33FD
:1027E00021F4F7018081807C182BF701808181170B
:1027F000C9F080917602882329F080E0CAD881E070
:102800000E94E405F701108381E0809385018091A7
:102810007602882339F016FB442740F960E0812FC7
:102820008F73A1D81F3F09F4B6C0812F0E94F10A0F
:1028300080918501882309F4AAC080E00E942C09B8
:1028400083E00E94CA08882309F4B5C088E00E948A
:10285000AF08882309F4AFC050917F022091060190
:102860002150330B40E0E42FF0E0DF01A158BD4FD1
:10287000E217F30734F4E058FD4F80818F3F09F0F1
:1028800096C05C9381E08093850187E10E94CA082D
:102890008823C1F180917602882391F080917A0299
:1028A00090E00196209106012817190641F03CF0AE
:1028B000E0917A02F0E0E058FD4F8FEF808332DE46
:1028C0001092600180E00E942C0987DD0E94CF07F2
:1028D0008091CD0180937E020E94FB08882319F02D
:1028E000815080937C0287E10E94CA08882369F3A3
:1028F00060917C0280917E02A9DD1092850180E0CA
:102900000E9430092596E7E09FC7809184018C3FA3
:1029100009F4D5CE809184018A5F823008F46CCEB0
:10292000D1CE809164018230A9F3CCCEFBDD68CE9C
:1029300085E10E94CA08882341F0F701808190E474
:102940008927808381E08093850186E10E94CA08FF
:10295000882339F0F70180818058808381E080935B
:102960008501112309F4C8CE0FEF173108F4C5CE45
:10297000143208F4C1CE01E0103308F4BECE03E0F7
:102980001C3308F0BACE02E0B8CE10E0D9CE80E019
:102990000E945B0955CF0E94800A80E00E943009A6
:1029A00083E00E94300980E00E94280949CF80819D
:1029B0008C934F5F58CF88E00E94CA088823F1F0BB
:1029C00083E00E94AF088823C9F030917F02809194
:1029D00006018150990B20E0E22FF0E0E817F9079B
:1029E0002CF4E058FD4F40814F3F19F4D0927F0204
:1029F00049CFD0802F5F30833D2DEECF8FE00E94F6
:102A0000CA088823D9F083E00E94AF088823B1F078
:102A10003091060190E080E0831708F033CFFC018D
:102A2000E158FD4F20812F3F09F42CCF20812E3318
:102A300019F020812F5F20830196EECF8EE00E9457
:102A4000CA088823D9F083E00E94AF088823B1F038
:102A50003091060190E080E0831708F013CFFC016D
:102A6000E158FD4F20812F3F09F40CCF20812B30FE
:102A700019F02081215020830196EECF88E00E943A
:102A8000CA08882309F180917602811123C088E069
:102A90000E94CA08882309F4C0C080917B0281117A
:102AA00098C032DD10927A02E0917A02F0E0E158AB
:102AB000FD4F8081809396018F3F09F4E6CE86FB1F
:102AC000442740F960E07DC083E00E94CA0881117C
:102AD000DACFDBCE10919601111F1127111F812F24
:102AE0000E94C90C81E00E94E40583E00E94CA08AC
:102AF0008823F1F180917A02811134C0809106011E
:102B00008150990B20917A022817190644F4E0911C
:102B10007A02F0E0E158FD4F20812F3FE9F40E9456
:102B2000940980917A020E94A109E0917A02F0E072
:102B3000E158FD4F8081809396018F3F91F581E0B0
:102B40000E945B0982E00E945B0980E00E942809E4
:102B500080E00E94300999CE20917A022F5F209365
:102B60007A02D0CF80917A02815080937A02D7CFB7
:102B700080917A0290E001962091060128171906AB
:102B800049F044F0E0917A02F0E0E158FD4F808195
:102B90008F3F19F410927A02C2CF80917A028F5F30
:102BA000E4CF80E00E945B0980918501882319F0C1
:102BB00080E00E942C098091960186FB442740F911
:102BC000612F8F730E94B30C809196010E94F10ACD
:102BD0005CCE80916001811106C081E0809360012C
:102BE0001092790252CE80917902282F30E0A9010B
:102BF0004F5F5F4F909106019417150639F034F03E
:102C000021583D4FF90190819F3F19F410926001C6
:102C1000E7CF8F5F8093790238CE8091600188235F
:102C200009F433CE80917902409106014150550B51
:102C3000882319F08150EECF822F282F30E02417FF
:102C4000350744F721583D4FF901908121E0280FC5
:102C50009F3F91F7DFCF81E080937B026FCC089597
:102C6000CF93DF93D091C60110927C02109276022E
:102C700010927B021092600110927D0210927A02F3
:102C80001092960180916401811129C00E94A600D2
:102C90000E94CF078091CD0180937E0260917C02DB
:102CA00066DB0E9485098091CD010E94A1090E94E6
:102CB000CF078091C6018D17B9F00E94AC00109229
:102CC0007D0280E00E94C90C0E945F070E943907C4
:102CD0000E9485090E948C0ADF91CF9108950E947D
:102CE000AC000E948907D4CF90917E028091CD01E3
:102CF000981789F080917602811114DC8091CD01C2
:102D000080937E0260917C0232DB0E949409809164
:102D1000CD010E94A10980917B0290917602892BBE
:102D2000B1F480917C028F5F0E94F1090E94FB0840
:102D3000C82F882361F00E94730A8C2F0E94F1092A
:102D40006FEF6C0F60937C0280917E0210DBF6DBEC
:102D5000AECF9C01AB0190E080E0F901E80FF91FD4
:102D60007081DA01A80FB91F6C91761309C06081D8
:102D70006F3F21F001968032910579F781E0089547
:102D800080E0089580917A028093D10290918B0126
:102D900080918A019923A9F0811115C040917A028E
:102DA0009091040180910501692F6150770B4617BE
:102DB000170611F481500895981790F480917A02C3
:102DC000F9CF882369F08091890187FF04C08F5F64
:102DD00080938901F3CF882339F081508093890152
:102DE00080917A028F5F089510928A018091050187
:102DF0009111E0CF809104010895B0E0A0E0E2E0FD
:102E0000F7E1FFC47090C6018091640181118CC00C
:102E10000E94A60080916401813009F088C00E9460
:102E200090070E9485090E94C20A1092AF02109278
:102E30008F028FEF8093B0028093900281E00E9416
:102E4000F1091092D0021092780210927A02109238
:102E50007402109273021092CF02109282011092AB
:102E6000830110928E0110928C0110928B011092AE
:102E70008A0181E08093050180910601809304011D
:102E8000109289010E9494099091C6018091CD0110
:102E90009B3021F0977F973009F04CC080939001D0
:102EA00080938F018091CD010E94A109C0E0912CF7
:102EB000D0E010E001E085E0682E88248A9490E656
:102EC000E92E9AEEF92E0E94CF078091C601871550
:102ED00039F0833029F400938C0181E20E942C099F
:102EE0008091C601871551F19091D002911126C0B1
:102EF00010928C010E945F070E9439071092820194
:102F0000109283011092610110929201109291012E
:102F1000109293010E9485090E94C20A0E948C0AA5
:102F2000CDB7DEB7EEE089C40E94AC0073CF0E943B
:102F3000890777CF8770B2CF912CC5CF90918C0144
:102F4000992369F0833059F4E0917302F09174028F
:102F5000EE52FD4F808180937C027DDEB4CF82E013
:102F60000E94CA08882339F187E10E94AF088111C5
:102F700022C0809186019091870186309D40B8F4EF
:102F800080918601909187018E34914080F060910C
:102F9000860170918701C701E1D370938701609327
:102FA000860180918601909187010E940005109210
:102FB00087011092860180E00E94CA08882349F0A8
:102FC0000E94730A0E94C20A82E20E94280910929B
:102FD000940180E00E94E508882361F1E2EDF2E0CF
:102FE00090E080E02191DC01A157BD4F2C93019628
:102FF00080329105B9F78091D002811118C090E01C
:1030000080E0FC01E157FD4F2081FC01E155FD4FBF
:103010002083019680329105A1F7809182018093EF
:10302000830183E00E945B0984E00E945B0982E2E5
:103030000E945B0980E00E94AF088111CAC08FE046
:103040000E94AF08882309F4C6C00E94F508D82E54
:103050008FE00E94CA08811105C08EE00E94CA0854
:10306000882339F00E94730A0E94C20A82E20E94F9
:103070005B098FE00E94AF08882309F418C184E03F
:103080000E945B0983E00E942809FFEFDF12D092C3
:1030900082018091830187FD0AC00E946C0A811120
:1030A00006C00E94C20A809183010E94630A809137
:1030B00082019091830189130E94510A8091D0026C
:1030C00081112AC0809182018093830125C0ED2D5A
:1030D000F0E0EE52FD4F8081883040F48F5F0E9417
:1030E000F109D39480919401D81688F30E940009C5
:1030F000882391F0E0919401E03270F491E09E0F0A
:1031000090939401F0E0EE52FD4F81508083E92FBF
:10311000F0E0EE52FD4F808260D9809164018823F7
:1031200009F45DC180916401823009F4A3C181304A
:1031300021F40E94770781115DC1809164018111A2
:103140009EC181E00E94E508882309F498C180911E
:10315000D002811194C181E20E9428098091C601A8
:103160008B3021F0877F873009F0F4C10E940F096E
:103170006091AF02882309F4EAC18091CD01F7D8AC
:103180001092960180916401823021F48091840133
:103190008B3F31F01092CF0210927A021092780297
:1031A00010926301109271011092700110926F01E0
:1031B000109261010093D00200937D028AEF0E9479
:1031C0006A0680916401813009F475C10E9441074B
:1031D00072C1D12C87CF8EE00E94AF08811135CF0C
:1031E0008FE00E94E508882309F48DC00E94730ACD
:1031F0000E94C20A0E94FB08D82E87E10E94AF08F5
:10320000811106C0D1106DC20E940F09811191C2B7
:1032100080916401823021F00E94BC068093840179
:103220008091840182958F708C3009F074C00E9467
:10323000A30687FD1CC0982F96959695969590931A
:103240008F01877080938F02809290022091D0022C
:10325000211106C0909390018093AF028092B0023A
:103260000E94440A80918F028F5F0E94F1096FEAE9
:1032700072E08FE892E06DDD811173C08091900261
:103280008F3F49F48091B0028F3F29F48091AF02C3
:103290008F5F0E941F0AD12CC12CF601E157FD4F10
:1032A0008081893008F450C00E94440E35CF8EE0F2
:1032B0000E94AF08882309F401CF83E00E945B09D4
:1032C00084E00E9428092FEFD21621F084EF8D0DA3
:1032D0008093820180918301181664F0845F0E94BC
:1032E0006C0A811107C00E94C20A80918301845F29
:1032F0000E94630A8091820190918301891709F4E9
:10330000DDCE845FD9CE8EE00E94E50881116ECFBC
:1033100071CF977018C28091840182958F70893027
:1033200009F0A5CF809184018F709091C00198130E
:103330009ECF0E94A30690ED980F993108F097CF89
:103340008C538093820193CF80818F5F0E94F1091B
:103350008FEFC81AD80A90E2C916D10409F09DCFA0
:10336000A3CFB12CA12CF501E155FD4F6F01808158
:10337000893008F099CF8091D002882311F1908193
:10338000E091CF02F0E0E155FD4F8081981319C024
:10339000F60180818F5F0E942A0A81110AC0F6011E
:1033A00080818F5F0E94140AF60180818F5F0E94E6
:1033B0001F0AFFEFAF1ABF0A20E2A216B10499F666
:1033C00073CFF60180818F5F0E942A0A81110E94CB
:1033D000C20AF60180818F5F0E94F109EACF81E085
:1033E0000E94E508882309F49DCE8091D0028823AD
:1033F00009F498CE1092D00210927D0210928B01A7
:1034000010928A01009305018091060180930401C6
:103410001092890180E00E94C90C0E9439078091B6
:1034200064018130B9F581E20E945B090E94C20A01
:103430000E9494098091C6018B3019F0877F8730F4
:1034400061F58091CD010E94A1098091C601871587
:1034500091F110928C0110928201109283011092CE
:1034600061011092920110929101109293010E94B9
:10347000850954CD809184018C3F09F4BBCF8091A4
:103480006401823071F08130B1F40E9465078111CE
:1034900062CE11C00E945F07C6CF8091CD018770B8
:1034A000D2CF809184018A3F09F455CE8091840166
:1034B0008B3F09F450CE80918C01882369F0809174
:1034C000C601833049F010928C01109260010E9475
:1034D000850981E20E94280980E00E94AF088823C4
:1034E00051F083E00E94CA08882329F080910501E9
:1034F000815080937A0287E10E94AF088823E1F12E
:1035000082E00E94CA08882349F081E090918801F6
:10351000911180E080938801992493940E94050979
:10352000112309F460C0D11101C0D82F88E00E9496
:10353000CA08882309F459C083E00E94AF08882391
:1035400009F453C01FDC80937A02C1E073C08091FC
:10355000900115CE6091AF028091CD0187700E94DD
:10356000C20E809151029091520290937402809306
:1035700073020E94690E04CE86E10E94CA08882365
:1035800001F181E090919201911180E0809392018C
:1035900085E10E94CA088823D1F081E090919301CF
:1035A000911180E08093930184E10E94CA088823EE
:1035B000A1F081E090919101911180E080939101BF
:1035C000B5CF86E10E94E5088111DBCFE1CF85E12F
:1035D0000E94E5088111E1CFE7CF84E10E94E50870
:1035E0008111E7CFA3CF182FA1CF83E00E94CA0893
:1035F0008823C1F088E00E94AF08882399F0809169
:10360000D10280937A0280918A01882309F49DCFA8
:103610008091890187FF04C081508093890195CFF3
:103620008F5FFBCF88E00E94CA08882371F1CC230A
:1036300009F1C0E087E10E94E508882309F443CC42
:1036400091107ACC00938A0190917A0280910401C2
:103650008150891B80938901111126C0D11126C088
:1036600000930501809106018093040110928B0163
:103670009D2E35C080918D018F5F863018F4809328
:103680008D01D7CF60928D01D5CF83E00E94CA080B
:10369000882381F2C111CDCFC0918D01CC2351F28D
:1036A000C150C0938D01C5CFDD2311F3812F81500F
:1036B000990BFC01E158FD4F80818F3F79F08D2FF0
:1036C0008150990BFC01E158FD4F80818F3F31F013
:1036D00000938B0110930501D0930401D0E010E01A
:1036E000F2CB0E94440ADA94D0928F02D092D20296
:1036F000809290028092D3028091D002811188CD75
:1037000090E080E0FC01E157FD4F2081FC01E15594
:10371000FD4F2083019680329105A1F70E94940904
:1037200080918F010E94A109809182018093830181
:103730006FCD8091C6019091CD018B3021F0877FB4
:10374000873009F0E6CD90938F018091D0028111EE
:103750005FCD80918F0180939001E0CFAA1BBB1BAE
:1037600051E107C0AA1FBB1FA617B70710F0A61B81
:10377000B70B881F991F5A95A9F780959095BC01A2
:10378000CD01089597FB072E16F4009406D077FD1F
:1037900008D0E4DF07FC05D03EF4909581959F4F5B
:1037A0000895709561957F4F0895A1E21A2EAA1B86
:1037B000BB1BFD010DC0AA1FBB1FEE1FFF1FA217E1
:1037C000B307E407F50720F0A21BB30BE40BF50BDE
:1037D000661F771F881F991F1A9469F76095709567
:1037E000809590959B01AC01BD01CF010895EE0F2E
:1037F000FF1F0590F491E02D09942F923F924F9274
:103800005F926F927F928F929F92AF92BF92CF9270
:10381000DF92EF92FF920F931F93CF93DF93CDB779
:10382000DEB7CA1BDB0B0FB6F894DEBF0FBECDBFF1
:1038300009942A88398848885F846E847D848C84C2
:103840009B84AA84B984C884DF80EE80FD800C81CB
:103850001B81AA81B981CE0FD11D0FB6F894DEBFAE
:103860000FBECDBFED010895F894FFCF850274021D
:10387000E002740275037402FA026E0275037402A8
:10388000FA02E00275037402FA02F90374022B04CF
:103890007402600474025804E7036004740258045C
:1038A0002B04600474025804D105CC05AE05BC0598
:1038B000D505C605AE05C605D905C905AE05C905B8
:0838C000AE05C105B805C10504
:1038C80064207F011001100409050A06070B110C7A
:1038D800120D1013141516040506071112101320E3
:1038E800191A180C0B0A09201B191C1A180F0C0E90
:1038F8000B0D0A092221252320191A18241B1C0F35
:103908000E0D04030A0C0B090801020026271D1ED0
:0C3918001F1012111314151617050607D6
:00000001FF
